:020000040800F2
:10000000F80400200901000811010008130100088C
:100010001501000817010008190100080000000080
:100020000000000000000000000000001B010008AC
:100030001D010008000000001F0100082101000848
:100040002301000823010008230100082301000800
:1000500023010008230100082301000823010008F0
:1000600023010008230100082301000823010008E0
:1000700023010008230100082301000823010008D0
:1000800023010008230100082301000823010008C0
:1000900023010008230100082301000823010008B0
:1000A00023010008230100082301000823010008A0
:1000B0002301000823010008230100082301000890
:1000C0002301000823010008230100082301000880
:1000D0002301000823010008230100082301000870
:1000E000230100082301000823010008DFF80CD0D9
:1000F00002F020FA004800471B160008F804002010
:1001000080F308887047000006488047064800478B
:10011000FEE7FEE7FEE7FEE7FEE7FEE7FEE7FEE7B7
:10012000FEE7FEE70B020008ED0000080CB500201A
:10013000019000906C48006840F480306A49086083
:1001400000BF6948006800F4003000900198401C2E
:100150000190009818B90198B0F5A06FF1D16248EC
:10016000006800F4003010B10120009001E0002090
:1001700000900098012843D15C48006840F01000CE
:100180005A4908600846006820F0030008600846E5
:10019000006840F0020008605348406852494860D7
:1001A0000846406848600846406840F480604860FF
:1001B0000846406820F47C1048600846406840F4D7
:1001C000E81048600846006840F08070086000BF92
:1001D0004548006800F000700028F9D042484068A7
:1001E00020F00300404948600846406840F00200A3
:1001F000486000BF3C48406800F00C000828F9D176
:100200000CBD10B5FFF792FF10BD10B53648006861
:1002100040F001003449086008464068344908400D
:100220003149486008460068324908402E49086054
:100230000846006820F4802008600846406820F4E2
:10024000FE0048604FF41F008860FFF7DAFF4FF0B0
:1002500000602949086010BD10B50021002000226F
:10026000214B5B6803F00C0121B1042906D0082959
:1002700028D107E0214B224C236027E01F4B204C64
:10028000236023E0184B5B6803F47010164B5B6827
:1002900003F48032022303EB904022B9194B43430D
:1002A000174C23600DE0104B5B6803F4003323B15F
:1002B000144B4343124C236003E0104B4343104C58
:1002C000236003E00D4B0E4C236000BF00BF064BC4
:1002D0005B68C3F303130C4CE15C094B1B68CB4018
:1002E000074C236010BD00000010024000200240B7
:1002F0000000FFF8FFFFF6FE08ED00E000127A00B4
:100300000000002000093D000400002001460020FC
:10031000FE4A106800F03800084310607047FB493F
:10032000096821F00801F94A116011460968014382
:1003300011607047F549096821F01001F34A116016
:1003400011460968014311607047F148EF49486060
:10035000F04848607047EE48EC494860ED48486016
:100360007047EA48006940F08000E849086170473A
:10037000E648006940F08000E449086170470420C5
:10038000E249C96801F0010109B101200EE0DF492D
:10039000C96801F0040109B1022007E0DB49C9681E
:1003A00001F0100109B1032000E00420704700B5FE
:1003B00002460423FFF7E3FF034603E0FFF7DFFFF6
:1003C0000346521E012B01D1002AF7D102B90523A1
:1003D000184600BD30B5044604254FF43020FFF721
:1003E000E6FF0546042D17D1C848006940F0020019
:1003F000C649086108464461006940F04000086150
:100400004FF43020FFF7D3FF0546C048006941F69E
:10041000FD710840BD490861284630BD10B504246F
:100420004FF43020FFF7C3FF0446042C16D1B74821
:10043000006940F00400B54908610846006940F0D1
:10044000400008614FF43020FFF7B1FF0446AF4889
:10045000006941F6FB710840AC490861204610BDB7
:1004600000B502460423FFF78AFF034603E0FFF7C7
:1004700086FF0346521E012B01D1002AF7D102B993
:100480000523184600BD10B504244FF43020FFF7B3
:10049000E7FF0446042C16D19C48006940F0040094
:1004A0009A4908610846006940F0400008614FF42D
:1004B0003020FFF7D5FF04469448006941F6FB71F0
:1004C000084092490861204610BD00208F49C96943
:1004D00001F0020109B1012000E00020704730B5B1
:1004E000A5250424FFF7F1FF00B100254FF43020CB
:1004F000FFF75DFF0446042C3AD1854883498860A4
:10050000844888600846006940F020000861084679
:10051000006940F0400008614FF43020FFF747FFCA
:100520000446042C1BD17948006941F6DF7108406C
:10053000764908610846006940F010000861764875
:100540000580E002FFF733FF0446052C10D06F480A
:10055000006941F6EF7108406C49086108E0052C1C
:1005600006D06A48006941F6EF71084067490861A2
:10057000204630BD78B506460C4604250020009084
:10058000E802FFF714FF0546042D24D15F480069F7
:1005900040F001005D4908613480E802FFF707FF81
:1005A0000546042D10D1B01C0090200C0099088045
:1005B000E802FFF7FCFE05465448006941F6FE716B
:1005C00008405249086106E05048006941F6FE7152
:1005D00008404E490861284678BD70B504460D466E
:1005E0000426F002FFF7E3FE0646042E11D1474829
:1005F000006940F00100454908612580F002FFF7DD
:10060000D6FE06464148006941F6FE7108403F4962
:100610000861304670BD70B505460E460424E00200
:10062000FFF7C5FE0446042C17D1394837498860C6
:10063000384888600846006940F0100008612E8044
:10064000E002FFF7B4FE0446052C06D02F480069EF
:1006500041F6EF7108402D490861204670BD2DE933
:10066000F04304464FF6FF763746B046B1460425C0
:10067000E443E6B2C4F30727C4F307484FEA14691A
:10068000E802FFF794FE0546042D49D120481F4992
:100690008860204888600846006940F010000861C2
:1006A000FF2E06D01C4808300680E802FFF77FFEC8
:1006B0000546042D08D1FF2F06D017480A300780C1
:1006C000E802FFF774FE0546042D0AD1B8F1FF0FCA
:1006D00007D011480C30A0F80080E802FFF767FE51
:1006E0000546042D0AD1B9F1FF0F07D00A480E3094
:1006F000A0F80090E802FFF75AFE0546052D0FD03E
:100700000248006941F6EF71084007E0002002400E
:1007100023016745AB89EFCD00F8FF1F66490861EB
:100720002846BDE8F08330B5054604244FF4302058
:10073000FFF73DFE0446042C41D160485E498860C5
:100740005F4888600846006940F02000086108465C
:10075000006940F0400008614FF43020FFF727FEA9
:100760000446042C22D15448006941F6DF71084048
:10077000514908610846006940F0100008611DB148
:1007800000205049088002E0A5204E4908804FF41F
:100790003020FFF70CFE0446052C10D046480069B7
:1007A00041F6EF7108404449086108E0052C06D085
:1007B0004148006941F6DF7108403F490861204621
:1007C00030BDF0B505460E46174604243B483A496D
:1007D00088603B488860E002FFF7E9FD0446042C8E
:1007E00019D13548006940F010003349086147F0DD
:1007F000F800304328433349891C0880E002FFF7A2
:10080000D6FD0446052C06D02B48006941F6EF7151
:100810000840294908612046F0BD2748C069800882
:1008200070472548006A704700202349096801F095
:10083000200109B1012000E00020704729B11E4AC3
:10084000126902431C4B1A6104E01B4A126982437D
:10085000194B1A61704701460020012908D1164A38
:10086000D26902F001020AB1012008E0002006E08E
:10087000114AD2680A400AB1012000E00020704706
:100880000D49C860704704200B49C96801F0010197
:1008900009B101200EE00849C96801F0040109B15D
:1008A000022007E00449C96801F0100109B10320E2
:1008B00000E004207047000000200240230167454B
:1008C000AB89EFCD00F8FF1F10B50446CC48844239
:1008D00008D10121042000F02DFB0021042000F0AC
:1008E00029FB46E0C748844208D10121082000F0D6
:1008F00021FB0021082000F01DFB3AE0C2488442A1
:1009000008D10121102000F015FB0021102000F07B
:1009100011FB2EE0BD48844208D10121202000F0C7
:1009200009FB0021202000F005FB22E0B8488442AA
:1009300008D10121402000F0FDFA0021402000F004
:10094000F9FA16E0B348844208D10121802000F072
:10095000F1FA0021802000F0EDFA0AE0AE4884426E
:1009600007D10121801500F0E5FA0021A01500F063
:10097000E1FA10BD10B50121084600F0DBFA0021B4
:10098000012000F0D7FA10BD2DE9F0410246002504
:100990000026002000230024002791F803C00CF05B
:1009A0000F0591F803C00CF0100CBCF1000F03D040
:1009B00091F802C04CEA050591F800C0BCF1000FA7
:1009C00031D0146800202BE04FF0010C0CFA00F33A
:1009D000B1F800C00CEA03069E4220D183004FF01C
:1009E0000F0C0CFA03F7BC4305FA03FC4CEA0404B1
:1009F00091F803C0BCF1280F06D14FF0010C0CFA9E
:100A000000FCC2F814C00AE091F803C0BCF1480F22
:100A100005D14FF0010C0CFA00FCC2F810C0401CCC
:100A20000828D1D31460B1F800C0BCF1FF0F34DD49
:100A3000546800202EE000F1080C4FF0010808FA7D
:100A40000CF3B1F800C00CEA03069E4221D18300EA
:100A50004FF00F0C0CFA03F7BC4305FA03FC4CEA09
:100A6000040491F803C0BCF1280F05D100F1080C73
:100A700008FA0CF8C2F8148091F803C0BCF1480FD2
:100A800007D100F1080C4FF0010808FA0CF8C2F881
:100A90001080401C0828CED35460BDE8F0814FF68A
:100AA000FF710180022181700421C17070470246EC
:100AB000002093680B400BB1012000E0002070473C
:100AC0000146886880B2704702460020D3680B4018
:100AD0000BB1012000E0002070470146C86880B2D9
:100AE000704701617047416170470AB1016100E0E0
:100AF00041617047C16070474FF480320A438261A0
:100B00008161826182698269704702460020434B9D
:100B100018684FF68073184040EA021008433F4BB4
:100B2000186070473E49C8617047F0B50A46002317
:100B300000240021002500F00046B6F1004F02D14C
:100B4000364EF16901E0354E7168C0F3034583B25A
:100B500000F44016B6F5401F08D121F070612F4E09
:100B6000766826F070662D4F7E6012E000F48016E5
:100B7000B6F5801F06D1032606FA05F4A14341F01D
:100B8000706106E0460D360103FA06F6B14341F006
:100B9000706122B1460D360103FA06F6314300F0CA
:100BA0000046B6F1004F02D11C4EF16101E01B4E30
:100BB0007160F0BD30B500228B071C0F0F2303FAC4
:100BC00004F2164B08338C1053F824309343134C23
:100BD00008348D1044F8253023468C1053F8243007
:100BE0008C07240F00FA04F423430C4C08348D10B6
:100BF00044F8253030BD0A49DC31086070470000F8
:100C000000080140000C01400010014000140140A8
:100C100000180140001C014000200140000001407C
:100C200000002042DF48006840F00100DD49086014
:100C300008464068DC490840DA49486008460068D0
:100C4000DA490840D74908600846006820F4802047
:100C500008600846406820F4FE0048604FF41F001A
:100C600088607047CF49096821F48031CD4A11600E
:100C70001146096821F480211160B0F5803F03D04E
:100C8000B0F5802F0ED106E0C649096841F48031E5
:100C9000C44A116007E0C349096841F4A021C14A70
:100CA000116000E000BF00BF704710B50146002290
:100CB000002300204A11012A02D1BA4C236806E021
:100CC000022A02D1B74C236A01E0B64C636A01F0F4
:100CD0001F02012494401C400CB1012000E00020C0
:100CE00010BD38B5002000900024002500BF312041
:100CF000FFF7DBFF05460098401C00900098B0F518
:100D0000A06F01D0002DF2D03120FFF7CEFF08B147
:100D1000012400E00024204638BD01460020A14AFD
:100D2000106820F0F80040EAC10010607047A04948
:100D300008607047024600209A4B586820F47C10E7
:100D400042EA01031843974B586070479849086678
:100D5000704701460020934A506820F00300084382
:100D6000506070478F48406800F00C0070470146A3
:100D700000208C4A506820F0F00008435060704713
:100D800001460020874A506820F4E0600843506024
:100D9000704701460020834A506820F4605040EAC2
:100DA000C1005060704729B17E4A527A02437D4BA0
:100DB0005A7204E07B4A527A82437A4B5A727047E5
:100DC0007B49D8310860704701460020754A506859
:100DD00020F440400843506070470021714A20329F
:100DE0001170704A82F82010012802D004280AD11C
:100DF00004E001216B4A2032117005E00521694AA7
:100E00002032117000E000BF00BF704769490860E0
:100E100070476449096A0143624A11627047654933
:100E200044390860704730B50021002200240023B7
:100E30005C4D6D6805F00C0121B1042905D008292D
:100E400023D105E05C4D056022E05B4D05601FE0AD
:100E5000544D6D6805F47012524D6D6805F4803480
:100E6000022505EB92421CB9544D554305600BE039
:100E70004C4D6D6805F400351DB1504D554305606E
:100E800002E04D4D5543056002E04B4D056000BF4B
:100E900000BF444D6D6805F0F0010909484D6B5CD9
:100EA0000568DD4045603F4D6D6805F4E061090A65
:100EB000434D6B5C4568DD4085603A4D6D6805F4D7
:100EC0006051C90A3E4D6B5C4568DD40C560354DDB
:100ED0006D6805F44041890B3A4D6B5CC568B5FB04
:100EE000F3F5056130BD29B12E4A526902432D4BFD
:100EF0005A6104E02B4A526982432A4B5A61704777
:100F000029B1284A92690243264B9A6104E0254A96
:100F100092698243234B9A61704729B1214AD26971
:100F20000243204BDA6104E01E4AD26982431D4B22
:100F3000DA61704729B11B4AD2680243194BDA6063
:100F400004E0184AD2688243164BDA60704729B130
:100F5000144A12690243134B1A6104E0114A1269E0
:100F60008243104B1A61704712494039086070473C
:100F70000F49C86470470B49C87170470948406AF7
:100F800040F0807007494862704701460020054ADA
:100F900092680A400AB1012000E000207047014930
:100FA00088727047001002400000FFF8FFFFF6FE55
:100FB000000042428004424200127A0000093D00D3
:100FC000140000202400002010B50446FB48844291
:100FD00009D101218803FFF7ADFF00214FF48040C4
:100FE000FFF7A8FF32E0F648844209D10121480406
:100FF000FFF7ADFF00214FF40030FFF7A8FF25E019
:10100000F048844209D101218804FFF7A0FF0021A4
:101010004FF48020FFF79BFF18E0EB48844209D192
:101020000121C804FFF793FF00214FF40020FFF7D0
:101030008EFF0BE0E548844208D101210805FFF747
:1010400086FF00214FF48010FFF781FF10BD2DE9CE
:10105000F04786B005460E460024A24600BFA146D2
:101060000027B08900B100BF2F462C8A4CF6FF70D4
:101070000440F08804432C82AC894EF6F3100440FF
:10108000B08831890843718908430443AC81AC8A34
:101090004FF6FF400440B0890443AC8201A8FFF73B
:1010A000C2FEC648874202D1DDF810A001E0DDF89B
:1010B0000CA0A88900F4004040B10AEBCA0000EB84
:1010C0000A1031684900B0FBF1F807E00AEBCA00EA
:1010D00000EB0A1031688900B0FBF1F86420B8FB1E
:1010E000F0F004012009642101FB1089A88900F4B3
:1010F000004040B1322000EBC900B0FBF1F000F03D
:101100000700044308E0322000EB09106421B0FB23
:10111000F1F000F00F0004432C8106B0BDE8F08729
:101120004FF41651016000218180C18001810C21A2
:10113000418100218181704710B502460020108A4C
:101140004FF2FF0318400B884C8823438C882343BD
:10115000CC8823431843108210BD002101804180B8
:101160008180C180704721B1828942F4005282811E
:1011700004E082894DF6FF731A4082817047F0B512
:101180000346002400260025002040F66A17B942D5
:1011900000D100BF1846C1F3421401F01F06012719
:1011A00007FA06F5012C01D10C3004E0022C01D124
:1011B000103000E014301AB107682F43076002E0D6
:1011C0000768AF430760F0BD1AB1838A0B4383827F
:1011D00002E0838A8B4383827047028A4FF6F07362
:1011E0001A400282028A0A430282704782894FF2C1
:1011F000FF731A40828182890A438281704721B13C
:10120000828942F00202828104E082894FF6FD73F6
:101210001A4082817047028A4FF6DF731A400282B9
:10122000028A0A430282704721B1028A42F4804254
:10123000028204E0028A4BF6FF731A400282704772
:10124000C1F308028280704701468888C0F3080015
:101250007047818941F0010181817047028BD2B2D0
:101260000283028B42EA012202837047028B02F45E
:101270007F420283028B0A430283704721B1828A34
:1012800042F02002828204E0828A4FF6DF731A4025
:101290008282704721B1828A42F01002828204E089
:1012A000828A4FF6EF731A408282704721B1828A98
:1012B00042F00802828204E0828A4FF6F7731A40F5
:1012C0008282704721B1828942F40042828103E028
:1012D0008289C2F30E028281704721B1828A42F470
:1012E0000062828204E0828A4FF2FF731A40828297
:1012F0007047828A4FF6FB731A408282828A0A43C1
:101300008282704721B1828A42F00202828204E026
:10131000828A4FF6FD731A4082827047024600208F
:10132000B1F5007F00D100BF13880B400BB1012045
:1013300000E00020704701F40072B2F5007F00D198
:1013400000BFCA430280704770B5024600240023E4
:101350000025002040F66A16B14200D100BFC1F35B
:10136000421501F01F03012606FA03F3012D02D1F5
:101370009689334006E0022D02D1168A334001E0FF
:10138000968A33400C12012606FA04F4168834407B
:1013900013B10CB1012000E0002070BD10B5002297
:1013A000002340F66A14A14200D100BF0A120124B2
:1013B0009440A3B2DC43048010BD0000003801401B
:1013C0000044004000480040004C004000500040F5
:1013D00070B504460D46E1B2BC48FFF731FF00BFCF
:1013E0004021BA48FFF79AFF0028F9D0204670BD87
:1013F00000B585B0012144F20500FFF781FD012110
:101400000420FFF77DFD01210846FFF779FD01214A
:101410008803FFF775FD4FF40070ADF80000182049
:101420008DF8030003208DF802006946A848FFF7F5
:10143000ABFA4FF48060ADF8000004208DF8030093
:101440006946A348FFF7A0FA4FF4E130019000206D
:10145000ADF80800ADF80A00ADF80C00ADF81000CA
:101460000C20ADF80E0001A99848FFF7F0FD01210E
:101470008803FFF745FD012240F225519348FFF70D
:101480007EFE01219148FFF76EFE40218F48FFF755
:1014900052FF05B000BD012080F3138800BF00BFDC
:1014A0008C48006800F4E0608B490843001D8949BE
:1014B0000860BFF34F8F00BF00BFFEE72DE9F04784
:1014C000C0B00446884691464FF0000A25460027E2
:1014D000824800F005FAE0B210B94FEA142A02E09F
:1014E000012000EB142A51467DA001F055F800269A
:1014F0001BE0B5F5807F02D94FF4807700E02F46DE
:101500004FF48071684600F0CCFF08EB0622B9B2B8
:10151000684600F024FF3A466946704800F0B5FD81
:10152000ED1B77A001F038F8761C5645E1D375A085
:1015300001F032F87449694800F00CFE73A001F024
:101540002BF810227049484600F0B6FF38B176A05B
:1015500001F022F84FF0FF3040B0BDE8F0877CA0EA
:1015600001F01AF80020F7E7C0B005464FF0000878
:101570002E460027E8B210B94FEA152802E00120F4
:1015800000EB152841467CA001F006F88149486827
:10159000814900F059FE81A000F0FEFF00241EE00A
:1015A000B6F5807F02D94FF4807700E037464FF4DC
:1015B0008071684600F075FF7C4800EB0422B9B2E8
:1015C000684600F0CCFE744800EB0422B9B26846CD
:1015D00000F09DFEF61B76A000F0DEFF641C444583
:1015E000DED348A000F0D8FF72A000F0D5FF694913
:1015F00001F1080248686849FFF760FF40B976A02A
:1016000000F0CAFF8149182000F01EFEFFF743FFDB
:101610007F4800F0C1FFFFF73EFFFEF7F6FDFFF742
:10162000E7FE18215B4800F03CFF784A1821594832
:1016300000F095FE574800884EF6EE6188422CD1A6
:1016400074A000F0A9FF5348416881A000F0A4FFF6
:10165000504901F1080248685449FFF72FFF18B9B3
:101660004C494868FFF780FF7EA000F095FF67496E
:10167000182000F0E9FD4848406800F07F40B0F1D4
:10168000006F06D180A000F087FF434800F097FE6E
:1016900019E084A000F080FF15E03E48018886A094
:1016A00000F07AFF3C48406800F07F40B0F1006FE6
:1016B00006D175A000F070FF374800F080FE02E010
:1016C00078A000F069FF00BFFEE70000003801408D
:1016D000000801400CED00E00000FA059C0000202D
:1016E000436865636B204E657720537973202E2EF7
:1016F0002E6C6F6F70203D2025640D0A00000000E5
:101700002A0000000D0A00008C0000204D44352006
:1017100043616C63756C61746520537563636573B5
:1017200073200D0A200000004D64355F4361636C37
:1017300020436865636B204661696C64202C4D43CF
:1017400055204F5441204661696C640D0A20000009
:101750004D443520436865636B205375636365733F
:1017600073202C4D4355204F5441205375636365BE
:1017700073730D0A20000000436F7079204E657767
:1017800020537973202E2E2E6C6F6F70203D2025F4
:10179000640D0A007400002000300008436F707967
:1017A000204E6577205379730D0A000000980008D9
:1017B0002E000000436F7079205375636365737367
:1017C000202C205761697420746F20436865636B17
:1017D0002E2E2E200D0A00004E657720524F4D20F0
:1017E000436865636B2053756363657373202C20B6
:1017F0005761697420746F204C6F6164204E657767
:10180000205379737465726D200D0A00002C000856
:101810003C2A0008557064617465205461736B2024
:101820002C5379732057696C6C204C6F6164204E87
:101830006577205379732E2E5761697420466F7235
:101840002041204D6F6D656E74200D0A0000000070
:101850005570646174652053697A65205B25645D09
:10186000200D0A00436865636B204661696C642043
:101870002C20476F20746F204F6C64205379737451
:1018800065726D0D0A0000005379732057696C6C06
:10189000204C6F6164204150502E2E2E2E2E0D0AAA
:1018A0000000000053746172742041505020466162
:1018B000696C6564210D0A004E6F20557064617477
:1018C00065205461736B202C20476F20546F20419A
:1018D0005050202E2E2E2E253034580D0A00000098
:1018E000002101604160FE498160FE4AC260CA4336
:1018F0000261FC4AD2434261704770B5034600243E
:10190000002010E00E5C451C4D5D46EA0526851C56
:101910004D5D46EA0546C51C4D5D46EA056543F842
:101920002450641C001D9042ECD370BD2DE9F0439F
:10193000C0B080468946D8F80040D8F80450D8F89E
:101940000860D8F80C70402249466846FFF7D5FF7A
:1019500005EA060027EA0501084300990844E24920
:1019600008440444E00140EA54642C4404EA0500BD
:1019700026EA0401084301990844DC490844074465
:10198000380340EA1757274407EA040025EA07010D
:10199000084302990844D64908440644700440EAC2
:1019A000D6363E4406EA070024EA060108430399B6
:1019B0000844D04908440544A80540EA9525354423
:1019C00005EA060027EA0501084304990844CA49C4
:1019D00008440444E00140EA54642C4404EA05004D
:1019E00026EA0401084305990844C4490844074409
:1019F000380340EA1757274407EA040025EA07019D
:101A0000084306990844BE4908440644700440EA65
:101A1000D6363E4406EA070024EA06010843079941
:101A20000844B84908440544A80540EA95253544CA
:101A300005EA060027EA0501084308990844B24967
:101A400008440444E00140EA54642C4404EA0500DC
:101A500026EA0401084309990844AC4908440744AC
:101A6000380340EA1757274407EA040025EA07012C
:101A700008430A990844A0F524404F3806447004EE
:101A800040EAD6363E4406EA070024EA0601084347
:101A90000B9908449E4908440544A80540EA952549
:101AA000354405EA060027EA050108430C99084475
:101AB000984908440444E00140EA54642C4404EA90
:101AC000050026EA040108430D9908449249084498
:101AD0000744380340EA1757274407EA040025EA79
:101AE000070108430E9908448C49084406447004D1
:101AF00040EAD6363E4406EA070024EA06010843D7
:101B00000F990844864908440544A80540EA9525EC
:101B1000354405EA070026EA07010843019908440D
:101B2000804908440444600140EAD4642C4404EA37
:101B3000060025EA06010843069908447A49084444
:101B40000744780240EAD757274407EA050024EA09
:101B5000050108430B990844744908440644B0033E
:101B600040EA96463E4406EA040027EA0401084398
:101B7000009908446E4908440544280540EA153593
:101B8000354405EA070026EA070108430599084499
:101B9000684908440444600140EAD4642C4404EADF
:101BA000060025EA060108430A99084462490844E8
:101BB0000744780240EAD757274407EA050024EA99
:101BC000050108430F9908445C4908440644B003E2
:101BD00040EA96463E4406EA040027EA0401084328
:101BE00004990844564908440544280540EA153537
:101BF000354405EA070026EA070108430999084425
:101C0000504908440444600140EAD4642C4404EA86
:101C1000060025EA060108430E9908444A4908448B
:101C20000744780240EAD757274407EA050024EA28
:101C30000501084303990844444908440644B00395
:101C400040EA96463E4406EA040027EA04010843B7
:101C5000089908443E4908440544280540EA1535DA
:101C6000354405EA070026EA070108430D990844B0
:101C7000384908440444600140EAD4642C4404EA2E
:101C8000060025EA0601084302990844324908443F
:101C90000744780240EAD757274407EA050024EAB8
:101CA00005010843079908442C4908440644B00339
:101CB00040EA96463E4406EA040027EA0401084347
:101CC0000C990844264908440544280540EA15357E
:101CD000354485EA0600784005990844214943E0E7
:101CE0000123456789ABCDEF78A46AD756B7C7E81B
:101CF000DB702024EECEBDC1AF0F7CF52AC687472E
:101D0000134630A8019546FDD8988069AFF7448BFB
:101D1000BED75C892211906B937198FD8E4379A692
:101D20002108B44962251EF640B340C0515A5E26D0
:101D3000AAC7B6E95D102FD65314440281E6A1D894
:101D4000C8FBD3E7E6CDE121D60737C3870DD5F42D
:101D5000ED145A4505E9E3A9F8A3EFFCD9026F6732
:101D60008A4C2A8D4239FAFF08440444200140EA93
:101D700014742C4484EA0500704008990844FC4916
:101D800008440744F80240EA5757274487EA04000A
:101D900068400B990844F74908440644300440EA77
:101DA00016463E4486EA070060400E990844F24910
:101DB00008440544E80540EA5525354485EA06000F
:101DC000784001990844ED4908440444200140EA60
:101DD00014742C4484EA0500704004990844E849CE
:101DE00008440744F80240EA5757274487EA0400AA
:101DF000684007990844E34908440644300440EA2F
:101E000016463E4486EA070060400A990844DE49C7
:101E100008440544E80540EA5525354485EA0600AE
:101E200078400D990844D94908440444200140EA07
:101E300014742C4484EA0500704000990844D44985
:101E400008440744F80240EA5757274487EA040049
:101E5000684003990844CF4908440644300440EAE6
:101E600016463E4486EA0700604006990844CA497F
:101E700008440544E80540EA5525354485EA06004E
:101E8000784009990844C54908440444200140EABF
:101E900014742C4484EA050070400C990844C0492D
:101EA00008440744F80240EA5757274487EA0400E9
:101EB00068400F990844BB4908440644300440EA8E
:101EC00016463E4486EA0700604002990844B64937
:101ED00008440544E80540EA5525354465EA07000D
:101EE000704000990844B14908440444A00140EA04
:101EF00094642C4464EA0600684007990844AC499D
:101F000008440744B80240EA9757274467EA0500A7
:101F100060400E990844A74908440644F00340EA8B
:101F200056463E4466EA0400784005990844A249B2
:101F300008440544680540EAD525354465EA0700AC
:101F400070400C9908449D4908440444A00140EAAB
:101F500094642C4464EA0600684003990844984954
:101F600008440744B80240EA9757274467EA050047
:101F700060400A990844934908440644F00340EA43
:101F800056463E4466EA04007840019908448E496A
:101F900008440544680540EAD525354465EA07004C
:101FA000704008990844894908440444A00140EA63
:101FB00094642C4464EA060068400F9908448449FC
:101FC00008440744B80240EA9757274467EA0500E7
:101FD0006040069908447F4908440644F00340EAFB
:101FE00056463E4466EA040078400D9908447A4912
:101FF00008440544680540EAD525354465EA0700EC
:10200000704004990844754908440444A00140EA1A
:1020100094642C4464EA060068400B9908447049B3
:1020200008440744B80240EA9757274467EA050086
:102030006040029908446B4908440644F00340EAB2
:1020400056463E4466EA04007840099908446649C9
:1020500008440544680540EAD5253544D8F8000011
:102060002044C8F80000D8F804002844C8F8040048
:10207000D8F808003044C8F80800D8F80C003844F4
:10208000C8F80C0040B0BDE8F0832DE9F0470446E5
:102090000F4615460026B046B1462088C0F3C50855
:1020A000C8F14009206800EBC50020602068B0EB53
:1020B000C50F02D26068401C6060606800EB55701C
:1020C00060604D451CD304F1180101EB08004A463D
:1020D000394600F0CDF904F1180104F10800FFF7CA
:1020E00025FC4E4605E0B91904F10800FFF71EFC77
:1020F000403606F14000A842F5D94FF0000800E054
:102100000026AA1BB91904F1180303EB080000F01C
:10211000AFF9BDE8F08770B50346144600220020F1
:1021200015E011F822501D5431F82250C5F307264E
:10213000451C5E5551F82250C5F30746851C5E5577
:1021400051F822502D0EC61C9D55521C001DA04258
:10215000E7D370BD2DE9FC4104460E46002500275B
:102160002088C0F3C505382D40D2C5F138003FE0C6
:1021700081F6718722619D6D0C38E5FD44EABEA4AD
:10218000A9CFDE4B604BBBF670BCBFBEC67E9B28A2
:10219000FA27A1EA8530EFD4051D880439D0D4D9B7
:1021A000E599DBE6F87CA21F6556ACC4442229F40D
:1021B00097FF2A43A72394AB39A093FCC3595B65CF
:1021C00092CC0C8F7DF4EFFFD15D84854F7EA86F9C
:1021D000E0E62CFE144301A3A111084E827E53F7C2
:1021E00035F23ABDBBD2D72A91D386EBC5F1780040
:1021F0000746082221466846FFF78DFF3A46084900
:102200002046FFF742FF082269462046FFF73DFFC0
:10221000102204F108013046FFF77DFFBDE8FC8184
:102220002800002070B504460D460420704908704F
:10223000FEF78BF83420FEF723FB05EB8420FEF736
:10224000C9F8FEF78EF870BD2DE9F04104460F463F
:10225000B4F5806F01D24FF48064C4F3090008B96B
:10226000A60A02E0012000EB9426314661A000F0AE
:1022700093F904205E490870FEF767F83420FEF7F2
:10228000FFFA002504E007EB8520FEF7A3F86D1C9C
:10229000B542F8D3FEF765F85CA000F07DF9BDE823
:1022A000F0812DE9F04106460F4615460024042032
:1022B0004F4908705A48854204D35AA000F06CF97F
:1022C000BDE8F081FEF741F83420FEF7D9FA07E0C7
:1022D00036F8141005EB4400FEF77FF9601C84B259
:1022E000BC4203DA424800780428F1D0FEF739F8FE
:1022F00000BFE5E710B50346002005E032F81040C6
:1023000023F81040441CA0B28842F7DB10BD2DE931
:10231000F041C0B006460C4617460025EE224FF4A9
:102320008071684600F0B6F822463146684600F0F3
:102330009FF82546204604EBD0714910A4EB4101DB
:1023400009B1681C85B2A84605EBD870C0F34F01EF
:102350003A466846FFF7A5FF40B0BDE8F0812DE999
:10236000F041C0B006460C4617460025204604EB57
:10237000D0714910A4EB410179B92546A84605EB77
:10238000D870C0F34F013A466846FFF7B3FF2246C4
:102390006946304600F06CF80EE0601C85B2A84635
:1023A00005EBD87041103A466846FFF7A3FF224676
:1023B0006946304600F05CF840B0BDE8F08110B5E9
:1023C000044620681F490840B0F1005F0CD11EA0F0
:1023D00000F0E2F86068214908602068FDF790FE8F
:1023E0001E480068804702E01DA000F0D5F810BD2F
:1023F000680000204E656564204572617365202584
:1024000064205061676573200D0A00004572617396
:1024100065205375636365737320200D0A00000007
:1024200000000108576172696E673A466C61736813
:102430002057726974652041646472204572726F1E
:10244000720D0A000000FE2F537461636B205375F8
:102450006363657373210D0A000000006C000020A7
:10246000537461636B204661696C6564210D0A00D9
:1024700040EA01039B0703D009E008C9121F08C006
:10248000042AFAD203E011F8013B00F8013B521E86
:10249000F9D27047D2B201E000F8012B491EFBD2FD
:1024A00070470022F6E710B513460A46044619465F
:1024B000FFF7F0FF204610BD30B50446002003466C
:1024C00000E05B1C934203D2E05CCD5C401BF8D083
:1024D00030BD2DE9F05F0546002092469B468846B8
:1024E0000646814640241BE0284641464746224690
:1024F00000F041F853465A46C01A914110D3114694
:102500001846224600F028F82D1A67EB01084F46BE
:1025100022460120002100F01FF817EB00094E4170
:10252000201EA4F10104DFDC484631462A4643461A
:10253000BDE8F09F064C074D06E0E06840F001035F
:1025400094E8070098471034AC42F6D3FDF7D2FD6B
:102550008C2A0008AC2A0008202A04DB203A00FA62
:1025600002F1002070479140C2F1200320FA03F3EA
:10257000194390407047202A04DB203A21FA02F0E8
:102580000021704721FA02F3D040C2F120029140AD
:1025900008431946704700000FB4054B10B503A956
:1025A000044A029800F018F810BC5DF814FB000013
:1025B000D11300087000002002E008C8121F08C1F3
:1025C000002AFAD170477047002001E001C1121FB4
:1025D000002AFBD1704700002DE9FF4F8DB00F4658
:1025E0000546002606E025280BD0DDE90F129047AE
:1025F0006D1C761C28780028F5D111B03046BDE856
:10260000F08F0024A246A1460122EC4900E00443D9
:1026100015F8013F203B02FA03F00842F7D1287871
:102620002A2810D06FF02F022878A0F13001092954
:1026300014D80AEB8A0102EB410144F0020400EBDA
:10264000010A6D1CF0E701CF5FEA000A03D544F4EC
:102650000054CAF1000A44F002046D1C28782E28A8
:1026600017D115F8010F44F004042A280ED06FF09A
:102670002F022878A0F1300109290AD809EB890135
:1026800002EB410100EB01096D1CF2E757F8049BD6
:102690006D1C28786C280FD006DC4C2817D06828D1
:1026A0000DD06A2814D104E0742810D07A280FD1F4
:1026B0000DE044F400140AE044F4801401E044F412
:1026C00040146978814202D104F580146D1C6D1CA0
:1026D0002A786E2A1FD00CDC632A31D004DC002A51
:1026E0008BD0582A11D1A3E0642A68D0692A0CD172
:1026F00065E0732A2ED004DC6F2A73D0702A04D1CF
:102700009BE0752A6FD0782A6ED01046DDE90F1253
:102710009047761C50E1C4F30250022806D00328EB
:1027200009D0042801CF09D0066045E101CFF11797
:10273000C0E9006140E101CF06803DE106703BE168
:1027400017F8040B8DF8000000208DF80100EB460F
:10275000012003E057F804BB4FF0FF3061074FF052
:10276000000102D40DE008F10101884649450FDA65
:102770008045F8DB1BF808100029F4D108E008F1C7
:10278000010188468142FADB1BF808100029F6D1C6
:10279000DDE90F23AAEB08008146214600F036F957
:1027A000304400EB080604E0DDE90F121BF8010BD2
:1027B0009047B8F10108F7D221464846F7E00A21D0
:1027C000C4F302534FF0000B0891022B04D001CF49
:1027D000C117032B09D00AE0FF1D27F00707F7E810
:1027E000020108E032E01FE020E000B2C117042B34
:1027F00001D140B2C117031E71F1000307DA4FF097
:10280000000CD0EB0C006CEB01012D2302E0230542
:1028100004D52B238DF82430012303E0E30701D0F6
:102820002023F7E7984658E00A2110E010210EE037
:1028300010204FF0000B08900CE010214FF0000B1F
:1028400044F004044FF00809089103E008214FF018
:10285000000B0891C4F30253022B04D001CF0021D6
:10286000032B06D006E0FF1D27F00707F7E802015B
:1028700003E080B2042B00D1C0B24FF00008230760
:102880002BD5702A07D0DDF820C08CF0100C5CEA44
:102890000B0C05D00EE040238DF82430012308E016
:1028A00050EA010306D030238DF824308DF825201E
:1028B00002239846DDF820C08CF0080C5CEA0B0C73
:1028C0000BD150EA010301D1630706D530238DF8FF
:1028D00024304FF00108A9F10109582A04D038A288
:1028E0000B9208AA0A920BE03AA2F9E75B46089A13
:1028F000FFF7EFFD0B9B9B5C0A9A521E0A92137026
:1029000050EA0102F2D10A98ADEB000000F1200B71
:10291000600702D524F4803401E04FF00109D94565
:1029200002DDA9EB0B0000E0002000EB0B014144AD
:102930000890AAEB010AE00306D4DDE90F23214643
:10294000504600F063F806444FF0000908E009A97A
:1029500011F80900DDE90F12904709F10109761C11
:10296000C145F4DBE0030CD5DDE90F2321465046D9
:1029700000F04CF8064404E0DDE90F1230209047E7
:10298000761C0899481E08900029F5DC08E00A9892
:102990000A990078491C0A91DDE90F129047761CCC
:1029A000BBF10001ABF1010BF1DC21465046DDE942
:1029B0000F2300F019F806446D1C1BE609280100DE
:1029C00030313233343536373839616263646566A5
:1029D0000000000030313233343536373839414267
:1029E00043444546000000002DE9F041044600251F
:1029F0001E461746880404D405E039462020B04717
:102A00006D1C641EF9D52846BDE8F0812DE9F04122
:102A1000044600251E469046C80301D5302700E035
:102A20002027880404D505E041463846B0476D1C90
:102A3000641EF9D52846BDE8F08100004E65772078
:102A4000524F4D20436865636B204661696C64207A
:102A50002C20557064617465204661696C64202C7B
:102A6000204D43552054727920546F205570646175
:102A7000746520416761696E202C4D435520526575
:102A800073746172742E2E2E200D0A00AC2A000879
:102A90000000002074000000B8250008202B00086A
:102AA0007400002084040000C825000800A24A0425
:102AB00000000000000000000102030406070809EE
:102AC00000000000010203040102030406070809D4
:102AD0000204060880000000000000000000000062
:102AE00000000000000000000000000000000000E6
:102AF00000000000000000000000000000000000D6
:102B000000000000000000000000000000000000C5
:102B100000000000000000000000000000000000B5
:04000005080000ED02
:00000001FF
