:020000040800F2
:100000007808002009010008DD0F00086B0E0008C9
:10001000910E0008170200089D1300080000000060
:1000200000000000000000000000000011100008A7
:100030001902000800000000DF0F0008E5110008A9
:100040002301000823010008230100082301000800
:1000500023010008230100082301000823010008F0
:1000600023010008230100082301000823010008E0
:1000700023010008230100082301000823010008D0
:1000800023010008230100082301000823010008C0
:1000900023010008230100082301000823010008B0
:1000A00023010008230100082301000823010008A0
:1000B0002301000823010008230100082301000890
:1000C0002301000823010008230100082301000880
:1000D0002301000823010008230100082301000870
:1000E000230100082301000823010008DFF80CD0D9
:1000F00000F070F800480047D91600087808002082
:1001000080F308887047000006488047064800478B
:10011000FEE7FEE7FEE7FEE7FEE7FEE7FEE7FEE7B7
:10012000FEE7FEE739120008ED000008202A04DB94
:10013000203A21FA02F00021704721FA02F3D04060
:10014000C2F120029140084319467047D2B201E043
:1001500000F8012B491EFBD270470022F6E710B5CC
:1001600013460A4604461946FFF7F0FF204610BD25
:100170002DE9F05F0546002092469B4688460646DC
:10018000814640241BE02846414647462246FFF769
:10019000CDFF53465A46C01A914110D31146184616
:1001A000224600F029F82D1A67EB01084F46224637
:1001B0000120002100F020F817EB00094E41201E1D
:1001C000A4F10104DFDC484631462A464346BDE837
:1001D000F09F0000064C074D06E0E06840F0010388
:1001E00094E8070098471034AC42F6D3FFF782FF3B
:1001F0005017000870170008202A04DB203A00FA84
:1002000002F1002070479140C2F1200320FA03F36D
:10021000194390407047FEE7704730B585B00C46F3
:10022000054600F037F9002002950090CDE9034023
:1002300004A9684600F090F800F0E2F805B001204B
:1002400030BD000006490020C8610648016941F040
:1002500004010161016941F0400101617047000042
:100260005800002000200240064A0021D1610649C2
:100270000A6942F002020A614861086940F04000E0
:10028000086170475800002000200240044B002203
:10029000DA61044A136943F0010313610180704776
:1002A000580000200020024014480022C168CB06FC
:1002B000134904D5CA6942F00202CA611022C36818
:1002C0005B0705D5CB6943F00103CB6142F0040223
:1002D000C369DB0707D0CB6943F00403CB61C16975
:1002E00021F00101C161A2F58071013901D0C26024
:1002F0007047C16921F00101C161704700200240CF
:100300005800002070B5054600F0C8F90646114CAB
:1003100009E0681C07D025B100F0C0F9801BA84295
:1003200001D9032070BDE068C007F2D1E068800603
:1003300001D52020E060E068C00605D4E069C00770
:1003400002D1E068400703D5FFF7AEFF012070BD82
:10035000002070BD002002402DE9F04705462648E8
:100360000F460126017E01290FD001218146017629
:100370002868DFF888804CF25034022808D0A24662
:100380002046FFF7BFFFA8B131E00220BDE8F087AB
:100390002046FFF7B7FF08BB0120FFF753FF2046B9
:1003A000FFF7B0FFD8F81010064621F00401C8F896
:1003B00010101CE04FF0FF303860AC6811E02046B0
:1003C000FFF752FF5046FFF79DFFD8F810100600C8
:1003D00021F00201C8F8101001D03C6007E004F5DC
:1003E0008064D5E9020100EB8120A042E7D800211A
:1003F00089F818103046C9E7580000200020024054
:100400000348016941F0800101610020704700004C
:10041000002002402DE9F05F07461C488846002472
:10042000017E15461E46012909D00121814601762B
:100430004CF2503A5046FFF765FF18B122E0022017
:10044000BDE8F09F012F02D0022F00D00427D34631
:10045000DFF83CA0220128463146FFF767FE81B253
:1004600008EB4400FFF712FF5846FFF74BFFDAF89E
:10047000102022F00102CAF8102018B9641CE4B25E
:10048000BC42E7D3002289F81820D9E758000020A1
:1004900000200240064900200A69120607D5054AD5
:1004A0004A60054A4A600969090600D5012070477B
:1004B0000020024023016745AB89EFCD2DE9F84FBD
:1004C000DFF8B891002409F1040A0AF1040B23466D
:1004D0000F270BF1040EC9E00125A5402A40AA42CE
:1004E0007DD1674ED1F804C0ACEB0608B44532D0DC
:1004F00014DCBCF1030F3AD009DCBCF1000F2AD0A8
:10050000BCF1010F1CD0BCF1020F31D11DE0BCF1D8
:10051000110F17D0BCF1120F2AD119E0B8F5881FBE
:1005200019D006DCB8F5803F15D0B8F5801F1FD173
:1005300011E0B8F5001F0ED0B8F5041F18D10AE07D
:10054000CB6815E0CB681B1D12E0CB6808330FE0C9
:10055000CB680C330CE08B682BB1012B4FF00803F8
:1005600003D0456104E0042302E0056100E00023BC
:10057000FF2A01D8064601E000F104064FEA84058F
:1005800001D9A5F12005D6F8008007FA05FC28EA74
:100590000C0803FA05F548EA0508C6F800804D681E
:1005A000ED0062D5374DAE6946F00106AE61AD692A
:1005B00024F0030605F001050095334D06EB050C0C
:1005C000DCF80850A607360F07FA06F825EA0805F2
:1005D000DFF8B880404503D14FF0000817E044E051
:1005E000DFF8AC80404502D14FF001080FE0DFF8A2
:1005F000A480404502D14FF0020808E0DFF898805F
:10060000404502D14FF0030801E04FF0040808FA1A
:1006100006F848EA0508CCF808804D68D9F800606B
:10062000ED034D4601D5164300E096432E604D681C
:10063000DAF80060AD03554601D5164300E0964355
:100640002E604D68DBF80060ED025D4601D5164373
:1006500000E096432E604D68DEF80060AD027546FE
:1006600001D5164300E096432E60641C0D682A46AF
:10067000E5407FF431AFBDE8F88F00000004014091
:10068000000011100010024000000140000801406D
:10069000000C014000100140001401400148806836
:1006A0007047000000000020024881680278114471
:1006B0008160704700000020074810B5016841F0D4
:1006C00010010160032000F067F8002000F006F838
:1006D00000F024F8002010BD0020024070B50D4D40
:1006E00004464FF47A712878B1FBF0F00A490968A2
:1006F000B1FBF0F000F0DEFA48B9102C07D200226E
:100700002146501E00F028F800206C6070BD0120CA
:1007100070BD0000000000200C0000200C4808B54F
:10072000816941F001018161816901F0010100915C
:10073000C16941F08051C161C06900F080500090F2
:100740000448416821F0E06141F00071416008BD5A
:100750000010024000000140F0B40E4B1B680C4634
:10076000C3F30223C3F10705042D00D90425191D85
:10077000072901D2002300E0DB1E012606FA05F15D
:10078000491E214099409E40761E16403143F0BCE0
:1007900000F016BE0CED00E0064900F00702086804
:1007A0004FF6FF03184040EA0220034A1043086056
:1007B000704700000CED00E00000FA052DE9F0475D
:1007C0000F46050061D0434E306800F00700B84284
:1007D00009D2306820F0070038433060306800F0FC
:1007E0000700B84251D128683B4C810712D5400719
:1007F00003D5606840F4E06060602878000703D5A6
:10080000606840F4605060606068A96820F0F000A3
:10081000084360602878C00728D06868012810D095
:100820002168022810D0890700292EDA616821F09A
:10083000030101436160FFF731FF804641F28839CF
:100840000DE021688903EFE78901EDE7FFF726FF57
:10085000A0EB0801494502D90320BDE8F087606894
:10086000696800F00C00B0EB810FEFD1306800F048
:100870000700B8420BD9306820F0070038433060D9
:10088000306800F00700B84201D00120E5E7287881
:10089000400705D56068E96820F4E06008436060BF
:1008A0002878000706D56068296920F4605040EA7E
:1008B000C100606000F038F86168084AC1F30311B4
:1008C000515CC8400649086006480068FFF706FF0B
:1008D0000020C2E700200240001002403817000844
:1008E0000C00002004000020044805490068496805
:1008F000044AC1F30221515CC84070470C0000203B
:10090000001002404817000804480549006849687B
:10091000044AC1F3C221515CC84070470C0000205A
:10092000001002404817000812A185B00FC98DE8D9
:100930000F0014A0144A006804905168134801F095
:100940000C03042B10D0082B0ED1C1F38343C90331
:100950001DF803000AD5516804AAC1F34041515C57
:100960000A4A5043B0FBF1F005B0704708494843CC
:10097000FAE7000002030405060708090A0B0C0D3C
:100980000E0F1010010200000010024000127A0049
:1009900000093D002DE9F84F040070D02078C04DCB
:1009A000C00749D06868C0F38100012807D0686893
:1009B000C0F38100022809D16868C00306D5286801
:1009C000800339D560680028E7D035E06068B0F56D
:1009D000803F0BD010B1B0F5A02F11D0286820F4C3
:1009E00080302860286820F4802002E0286840F4E5
:1009F00080302860606890B1FFF750FE06460AE03C
:100A0000286840F480202860F0E700BFFFF746FE2A
:100A1000801B642873D828688003F7D50CE0FFF7A3
:100A20003DFE064605E000BFFFF738FE801B642848
:100A3000F0D828688003F7D420789A4E80074FF0CA
:100A400001094FF0000839D5686810F00C0F07D085
:100A50006868C0F38100022809D16868C00306D421
:100A60002868800714D52069012808D110E0206982
:100A7000B0B1C6F80090FFF711FE074605E00AE1A5
:100A8000FFF70CFEC01B0228C4D828688007F7D5E2
:100A90002868616920F0F80040EAC10028600DE094
:100AA000C6F80080FFF7FAFD074604E0FFF7F6FD01
:100AB000C01B022823D828688007F7D420780007B5
:100AC0002CD57948A169D9B1C0F80090FFF7E6FDAF
:100AD000074604E0FFF7E2FDC01B02280FD8686A52
:100AE0008007F7D571484FF4FA510068B0FBF1F078
:100AF000009000BF0098411E0091FAD20EE080E005
:100B0000C0F80080FFF7CAFD074604E0FFF7C6FD06
:100B1000C01B022875D8686A8007F7D42078400780
:100B200060D5E8690027C00008D4E86940F080502B
:100B3000E861E869012700F0805000905C48016896
:100B4000C90513D40168834641F480710160FFF741
:100B5000A5FD824606E000BFFFF7A0FDA0EB0A005E
:100B600064284ED8DBF80000C005F5D5E068012800
:100B70000AD008B1052813D0286A20F001002862A5
:100B8000286A20F0040002E0286A40F00100286290
:100B9000E06841F2883B98B1FFF780FD82460BE0A8
:100BA000286A40F004002862EEE700BFFFF776FDF8
:100BB000A0EB0A0159455AD8286A8007F6D50CE0FF
:100BC000FFF76CFD824605E0FFF768FDA0EB0A0128
:100BD00059454CD8286A8007F6D41FB1E86920F03F
:100BE0008050E861E06988B36968C1F38101022936
:100BF00044D00228C6F8608004D0FFF74FFD0446B9
:100C000038E034E0FFF74AFD074604E0FFF746FD11
:100C1000C01B02282BD828688001F7D4206AB0F5C1
:100C2000803F05D16868A16820F4003008436860FF
:100C3000D4E908010843696821F474110843686025
:100C4000C6F86090FFF72AFD044606E025E000BFE5
:100C5000FFF724FD001B022809D828688001F7D57A
:100C60001BE000BFFFF71AFD001B022802D903207A
:100C7000BDE8F88F28688001F4D40EE00128F7D091
:100C80006868226A00F48031914204D1616A00F4FC
:100C90007010884201D00120EAE70020E8E7000058
:100CA0000010024000004242800442420C0000203A
:100CB0000070004010B5401EB0F1807F01D30120CC
:100CC00010BD4FF0E02460610F21601700F078FB49
:100CD0000020A06107202061002010BD70B5040035
:100CE00004D094F83900002510B106E0012070BD51
:100CF00084F83850204600F023F8242084F8390086
:100D00002068C16821F40051C160204600F0B8FAA3
:100D10002068016921F4904101612068416921F056
:100D20002A0141612068C16841F40051C160E56356
:100D3000202084F8390084F83A00002070BD0000BB
:100D400030B585B0002400940194029403940068A7
:100D50001449884224D11448816941F48041816159
:100D6000816901F480410491816941F0040181614C
:100D700080690E4D00F0040004904FF40070009064
:100D8000022001900320039069462846FFF796FB56
:100D90002815CDE90004694628460294FFF78EFB2A
:100DA00005B030BD0038014000100240000801408D
:100DB0002DE9F843044690F839001F4616460D46C3
:100DC000202850D1A5B19EB194F8380001284AD00E
:100DD000012084F838004FF00008C4F83C8021203E
:100DE00084F83900FFF75AFCA6848146E68426E0A1
:100DF0000120BDE8F883E08C401EE084A0684B46EB
:100E0000B0F5805F4FF000024FF080012046009760
:100E100003D000F091FAE8B90DE000F08DFAC8B9FE
:100E200028882168C0F308004860206908B16D1C5B
:100E300005E0AD1C03E0216815F8010B4860E08C6B
:100E40000028D8D14B46002240212046009700F0D0
:100E500073FA08B10320CCE7202084F8390084F825
:100E600038800020C5E70220C3E7FEE710B501681F
:100E7000064A1140B1F1005F07D144680068FFF7EE
:100E80003FF9A446BDE81040604710BD0000FE2FAA
:100E9000FEE700002DE9F74FADF5806D91468A46DB
:100EA00023A000F07DFA4FEA992083460146504680
:100EB000FFF7B3F926A000F073FA2DA000F070FA46
:100EC00000241FE0DDF800044FF4807500EB84205F
:100ED0002A46694600F084F80AEB84286E462F46BD
:100EE000FFF7D8FA5FF0000508EB850156F82520DA
:100EF00000230220FFF78EFA6D1CBD42F4DBFFF7E2
:100F00007FFA641CB4EB992FDCD31FA000F048FAE1
:100F100022A000F045FA5946DDF80004FFF77DF9FC
:100F200026A000F03DFA0DF20C4DBDE8F08F000058
:100F30003E2053746172742065726173652064652C
:100F40007320666C6173682E2E2E2E2E2E0D0A00D5
:100F50003E2045726173652064657320666C617321
:100F60006820646F776E2E2E2E2E2E2E0D0A000016
:100F70003E20537461727420636F70792E2E2E2E72
:100F80002E2E0D0A000000003E20436F7079206471
:100F90006F776E2E2E2E2E2E2E0D0A003E205374AD
:100FA0006172742065726173652073726320666C70
:100FB0006173682E2E2E2E2E2E0D0A003E204572B5
:100FC0006173652073726320666C61736820646F5F
:100FD000776E2E2E2E2E2E2E0D0A00007047704793
:100FE00010B5002305E000BF50F8234041F823402E
:100FF0005B1C9342F8DB10BD08B500200090012275
:1010000069460248FFF7ECFF009808BDFC8F010815
:101010007047000010B520A000F0C2F91FA000F03A
:10102000BFF928A000F0BCF930A000F0B9F925A064
:1010300000F0B6F919A000F0B3F936A000F0B0F94D
:10104000FFF7DAFF3C4CB0F1AA3F11D0B0F1FF3FFF
:101050000CD03A49C84201D139A013E0FFF7CCFFC8
:101060000146BDE8104040A000F09AB944A009E054
:1010700049A000F095F94FF4204221464C48FFF773
:1010800009FF4CA000F08CF950A000F089F920462F
:10109000BDE81040FFF7EABE0D0A00002A2A2A2AFE
:1010A0002A2A2A2A2A2A2A2A2A2A2A2A2A2A2A2AA0
:1010B0002A2A2A2A2A2A2A2A2A2A2A2A2A2A2A0DAD
:1010C0000A0000002A20202020202020202020208C
:1010D0002020202020202020202020202020202010
:1010E0002020202020202A0D0A0000002A20202075
:1010F000204C6561665F4672756974277320426F84
:101100006F744C6F616465722020202020202A0DAE
:101110000A0000003E2043686F6F736520612073F2
:10112000746172747570206D6574686F642E2E2EF4
:101130002E2E2E0D0A000000005000085655AAAAB7
:101140003E20526573746F726520746F2066616310
:10115000746F72792070726F6772616D2E2E2E2EF1
:101160002E2E0D0A000000003E204572726F723A6A
:1011700025582121212E2E2E2E2E2E0D0A00000064
:101180003E204E6F726D616C2073746172742E2EEE
:101190002E2E2E2E0D0A00003E20537461727420F4
:1011A0007570646174652E2E2E2E2E2E0D0A000091
:1011B00000F000083E2055706461746520646F770C
:1011C0006E2E2E2E2E2E2E0D0A0000003E20537461
:1011D0006172742075702E2E2E2E2E2E0D0A0D0A81
:1011E00000000000FFF760BA30B58FB028216846D4
:1011F000FEF7B3FF14210AA8FEF7AFFF0121080490
:10120000CDE900100024029402250491CDE9075095
:101210004FF4E01009906846FFF7BCFB0F20CDE9C2
:101220000A056802CDE90C4002210AA80E94FFF7D6
:10123000C5FA0FB030BD00000D48016841F0010152
:10124000016041680B4A1140416001680A4A11403F
:101250000160016821F480210160416821F4FE01F0
:1012600041604FF41F0181600449C003086070476A
:10127000001002400000FFF8FFFFF6FE08ED00E05E
:101280002DE9F041044600680169E26821F440510B
:10129000114301612169A06808436169084321681D
:1012A000CA6841F20C639A430243CA6020684169EC
:1012B000A26921F44071114341611E4920686425EF
:1012C0003226884202D1FFF71FFB01E0FFF70CFB3B
:1012D00000EBC00101EB001160686FF0180780009F
:1012E000B1FBF0F2B2FBF5F2B1FBF0F37A4303EBA2
:1012F0008202B1FBF0F306EB0212B2FBF5F2B3FB94
:10130000F5F302F0F00202EB0312B1FBF0F3B1FBD4
:10131000F0F0B0FBF5F0784303EB800006EB001033
:10132000B0FBF5F0216800F00F0010448860BDE8C4
:10133000F0810000003801402DE9F0419846174641
:101340000E460446069D1DE0681C1BD02DB1FFF71C
:10135000A5F9A0EB0800A84214D92068C16821F4BF
:10136000D071C1602068416921F0010141612020F4
:1013700084F8390084F83A00002084F8380003200B
:10138000BDE8F0812068006836EA000004D0002043
:10139000B842D9D00020F3E70120F9E7FEE70000CA
:1013A0000FB4054B10B503A9044A029800F028F8C1
:1013B00010BC5DF814FB0000C116000810000020EE
:1013C0000907090E002804DB00F1E02080F8001472
:1013D000704700F00F0000F1E02080F8141D704706
:1013E00002E008C8121F08C1002AFAD170477047EE
:1013F000002001E001C1121F002AFBD1704700004C
:101400002DE9FF4F8DB09B460F460446002606E0AF
:1014100025280BD05A460F999047641C761C2078DB
:101420000028F5D111B03046BDE8F08F0025A84660
:101430000122984900E0054314F8013F203B02FADD
:1014400003F00842F7D120782E2817D114F8010FA5
:1014500045F004052A280ED06FF02F022078A0F165
:10146000300109290AD808EB880102EB410100EBA1
:101470000108641CF2E757F8048B641C20786C2880
:101480000DD004DC4C2812D06A2811D104E0742855
:101490000DD07A280CD10AE045F4001507E06178F8
:1014A00045F48015814202D1641C05F58015641C49
:1014B0002278692A45D008DC002AB3D0582A69D09E
:1014C000632A10D0642A08D13BE0702A67D0732ABF
:1014D00013D0752A5CD0782A5CD010465A460F99F2
:1014E0009047761CD3E017F8040B8DF8000000201D
:1014F0008DF80100E946012003E057F8049B4FF006
:10150000FF3069074FF0000501D40AE06D1C454526
:101510000DDA8542FADB19F805100029F6D106E04C
:101520006D1C8542FCDB19F805100029F8D12E440A
:1015300004E019F8010B5A460F9990476D1EF8D236
:10154000A5E00A200021CDE90801C5F302500228D8
:101550000DD001CFC117031E71F100030DDA4FF05A
:10156000000CD0EB0C006CEB01012D2308E0FF1DFB
:1015700027F00707F7E80201EDE72B0504D52B2339
:101580008DF8283001233BE0EB0739D02023F7E723
:101590000A2000E010200021CDE9080107E010201A
:1015A000002145F00405CDE908014FF00808C5F316
:1015B000025002280FD001CF00214FF0000A2B0764
:1015C0001FD5702A0DD0DDE908C38CF0100C5CEA41
:1015D000030C0CD015E0FF1D27F00707F7E8020108
:1015E000EBE740228DF828204FF0010A0BE050EA8B
:1015F000010306D030238DF828308DF829200223EE
:101600009A46582A04D024A20DF120090B9209E031
:1016100026A2F9E7DDE90823FEF7AAFD0B9B9B5CF8
:1016200009F8013D50EA0102F4D1ADEB0900203088
:101630000890680701D44FF001080899884502DD39
:10164000A8EB010000E000208046002506E00AA883
:101650005A46405D0F9990476D1C761C5545F6DB48
:1016600004E030205A460F999047761CB8F10001EB
:10167000A8F10108F5DC05E019F8010B5A460F99AD
:101680009047761C0899481E08900029F4DC641CD9
:10169000C5E60000092801003031323334353637D1
:1016A00038396162636465660000000030313233AE
:1016B000343536373839414243444546000000004E
:1016C00013B54FF6FF73012269460248FFF770FB1E
:1016D00000981CBD1400002008B5FEF7EDFFFFF7D1
:1016E00083FD1248816941F020018161816901F027
:1016F00020010091816941F00401816180690C49F8
:1017000000F0040000900B480C2201604FF4E1311E
:10171000416000218160C160C0E904128161C16142
:10172000FFF7DCFAFFF776FCFCE700000010024050
:1017300000380140140000200000000000000000FC
:101740000102030406070809000000000102030467
:10175000701700080000002014000000E0130008CB
:10176000841700081400002064080000F01300082B
:101770000100000010000000000000000024F40040
:041780000000000065
:04000005080000ED02
:00000001FF
