:020000040800F2
:1030000008310020013100088F4D0008CB4C00082A
:103010008D4D00084B3200083158000800000000B8
:1030200000000000000000000000000085530008C0
:103030004D32000800000000B14D00088753000821
:103040001B3100081B3100081B3100081B31000830
:103050001B3100081B3100081B3100081B31000820
:103060001B3100081B3100081B3100081B31000810
:103070001B3100081B3100081B3100081B31000800
:103080001B3100081B3100081B3100081B310008F0
:103090001B3100081B3100081B3100081B310008E0
:1030A0001B3100081B3100081B3100081B310008D0
:1030B000495400081B3100081B3100081B3100086F
:1030C0001B3100081B3100081B3100081B310008B0
:1030D0001B3100081B310008255800081B3100086F
:1030E0001B3100081B3100081B310008DFF80CD031
:1030F00000F08AF800480047417B000808310020B2
:103100000648804706480047FEE7FEE7FEE7FEE781
:10311000FEE7FEE7FEE7FEE7FEE7FEE7FD530008F9
:10312000ED300008202A04DB203A21FA02F00021C9
:10313000704721FA02F3D040C2F1200291400843C7
:103140001946704740EA01039B0703D009E008C90C
:10315000121F08C0042AFAD203E011F8013B00F85C
:10316000013B521EF9D27047D2B201E000F8012BA8
:10317000491EFBD270470022F6E710B513460A46F7
:1031800004461946FFF7F0FF204610BD30B504464F
:103190000020034600E05B1C934203D2E05CCD5C60
:1031A000401BF8D030BD2DE9F05F05460020924667
:1031B0009B4688460646814640241BE028464146F9
:1031C00047462246FFF7AEFF53465A46C01A914182
:1031D00010D311461846224600F028F82D1A67EB46
:1031E00001084F4622460120002100F01FF817EB8E
:1031F00000094E41201EA4F10104DFDC484631469F
:103200002A464346BDE8F09F064C074D06E0E068BD
:1032100040F0010394E8070098471034AC42F6D31D
:10322000FFF768FF2881000848810008202A04DB96
:10323000203A00FA02F1002070479140C2F12003C9
:1032400020FA03F3194390407047FEE770470000EF
:1032500006490020C8610648016941F00401016186
:10326000016941F04001016170470000E810002051
:1032700000200240064A0021D16106490A6942F055
:1032800002020A614861086940F040000861704725
:10329000E810002000200240044B0022DA61044ABA
:1032A000136943F00103136101807047E8100020A7
:1032B0000020024014480022C168CB06134904D5FF
:1032C000CA6942F00202CA611022C3685B0705D5D1
:1032D000CB6943F00103CB6142F00402C369DB0711
:1032E00007D0CB6943F00403CB61C16921F0010130
:1032F000C161A2F58071013901D0C2607047C16916
:1033000021F00101C161704700200240E810002057
:1033100070B5054600F006FE0646114C09E0681C33
:1033200007D025B100F0FEFD801BA84201D9032083
:1033300070BDE068C007F2D1E068800601D52020AA
:10334000E060E068C00605D4E069C00702D1E0682B
:10335000400703D5FFF7AEFF012070BD002070BD10
:103360000020024070B50024234608E0CD181B1D44
:10337000EE782D6866F31F6540F82450641C934274
:10338000F4D370BD70B500231C4611E011F8235032
:10339000055531F823502E0A05196E7051F8236037
:1033A000360CAE7051F823605B1C360EEE70241D97
:1033B0009442EBD370BD00007CB5044600880E46F5
:1033C000C0F3C500382802D2C0F1380501E0C0F1D1
:1033D0007805082221466846FFF7D4FF2A460849A7
:1033E000204600F07FFB08226946204600F07AFB69
:1033F000102204F108013046FFF7C4FF7CBD000035
:1034000005000020002101604160054981600549F7
:10341000C1600349C94301610249C9434161704721
:103420000123456789ABCDEF2DE9F0410446C0B0DB
:1034300054F8048B402294E8E0006846241FFFF70C
:1034400091FF05EA060027EA05010843FE49009AB4
:10345000014402EB0800084405EB706000EA050136
:1034600026EA00021143F94A1144019A3A441144F0
:1034700000EB315303EA000125EA03021143F44A49
:103480001144029A3244114403EBF13101EA030280
:1034900020EA01063243EF4E3244039E35442A446B
:1034A00001EBB22202EA010523EA02063543EA4EA5
:1034B0003544049E3044284402EB706000EA020563
:1034C00021EA00063543E54E3544059E33442B443E
:1034D00000EB335303EA000522EA03063543E04ECE
:1034E0003544069E3144294403EBF13101EA0305DA
:1034F00020EA01063543DB4E3544079E32442A4418
:1035000001EBB22202EA010523EA02063543D64E58
:103510003544089E3044284402EB706505EA0200F9
:1035200021EA05063043D14E3044099E3344184405
:1035300005EB305000EA050322EA000633430A9EF9
:10354000A3F5244331444F3B194400EBF13303EA24
:10355000000125EA03063143C54E31440B9E324437
:10356000114403EBB12101EA030220EA01063243D0
:10357000C04E32440C9E35442A4401EB726202EA8A
:10358000010523EA02063543BB4E35440D9E304407
:10359000284402EB305505EA020021EA05063043D3
:1035A000B64E30440E9E3344184405EBF03000EA2A
:1035B000050322EA00063343B14E33440F9E3144E3
:1035C000194400EBB12101EA050320EA0506334363
:1035D000AC4E3344019E32441A4401EBF26202EADB
:1035E000000321EA00063343A74E3344069E3544C8
:1035F0002B4402EBF35303EA010522EA01063543AB
:10360000A24E35440B9E3044284403EBB04000EA00
:10361000020523EA020635439D4E3544009E31449F
:10362000294400EB313101EA030520EA0306354362
:10363000984E3544059E32442A4401EBF26202EA78
:10364000000521EA00063543934E35440A9E334473
:103650002B4402EBF35303EA010522EA010635434A
:103660008E4E35440F9E3044284403EBB04000EAB0
:10367000020523EA02063543894E3544049E31444F
:10368000294400EB313101EA030520EA0306354302
:10369000844E3544099E32442A4401EBF26202EA28
:1036A000000521EA000635437F4E35440E9E334423
:1036B0002B4402EBF35303EA010522EA01063543EA
:1036C0007A4E3544039E3044284403EBB04000EA70
:1036D000020523EA02063543754E3544089E3144FF
:1036E000294400EB313101EA030520EA03063543A2
:1036F000704E35440D9E32442A4401EBF26202EAD8
:10370000000521EA000635436B4E3544029E3344E2
:103710002B4402EBF35303EA010522EA0106354389
:10372000664E3544079E3044284403EBB04000EA1F
:10373000020523EA02063543614E35440C9E3144AE
:103740002944059D00EB3131154481EA00025D4EAC
:103750005A4032442A44089D01EB32721D4482EAE9
:1037600001034340584E33442B440B9D02EB7353EB
:10377000054483EA0200554E48403044284403EB98
:1037800030450E98524E014485EA030050403044C3
:10379000084405EB70260198811886EA05004D4A19
:1037A00058401044084406EB30720498C11882EA6D
:1037B0000600494B684018440844079902EB7050D2
:1037C0004B1980EA0201454D7140294419440A9B76
:1037D00000EB31419D1981EA0003414E53403344CF
:1037E0002B440D9D01EB7323154483EA01023D4EEA
:1037F000424032442A44009D03EB3272054482EA7F
:103800000300394E48403044284402EB7055039879
:10381000364E014485EA020058403044084405EB26
:1038200030410698324E034481EA0500504030444E
:103830001844099B01EB7020134480EA01022D4ECD
:103840006A4032441A4457E078A46AD756B7C7E8AA
:10385000DB702024EECEBDC1AF0F7CF52AC68747B2
:10386000134630A8019546FDD8988069AFF7448B80
:10387000BED75C892211906B937198FD8E4379A617
:103880002108B44962251EF640B340C0515A5E2655
:10389000AAC7B6E95D102FD65314440281E6A1D819
:1038A000C8FBD3E7E6CDE121D60737C3870DD5F4B2
:1038B000ED145A4505E9E3A9F8A3EFFCD9026F67B7
:1038C0008A4C2A8D4239FAFF81F6718722619D6DFB
:1038D0000C38E5FD44EABEA4A9CFDE4B604BBBF635
:1038E00070BCBFBEC67E9B28FA27A1EA8530EFD404
:1038F000051D880439D0D4D90C9B00EB32721D44CD
:1039000082EA0003644E4B4033442B440F9D02EB8C
:1039100073530D4483EA0201604E4140314429440F
:10392000029D03EB3141054481EA03005C4E5040A7
:103930003044284401EB702500985A4E024465EA51
:103940000300484030441044079A05EBB06013442C
:1039500060EA0102544E6A4032441A440E9B00EB66
:10396000B2520B4462EA0501504E414031441944C1
:10397000059B02EB71411D4461EA00034C4E53402C
:1039800033442B4401EBF3250C9B4A4E034465EA78
:10399000020048403044184405EBB0660398464B9B
:1039A000024466EA010068401844104406EBB05334
:1039B0000A98014463EA0500404A704010440844F4
:1039C000019903EB70404A1960EA06013C4D5940E9
:1039D00029441144089A00EBF121951961EA030288
:1039E000384E424032442A440F9D01EBB2621D44DE
:1039F00062EA0003344E4B4033442B44069D02EBF5
:103A0000B353054463EA0100304E5040304428442B
:103A100003EB70450D982E4E014465EA02005840B4
:103A200030440844049905EBF0200A4460EA03019D
:103A3000284E6940314411440B9A00EBB1611344A4
:103A400061EA0502244E424032441A4401EBB2536B
:103A5000029A224E154463EA00024A4032442A4444
:103A6000099D03EB7242054462EA01001C4E584076
:103A700030442844256802EBF02029442160616825
:103A800008446060A0681044A060E0681844E060EA
:103A900040B0BDE8F0810000E599DBE6F87CA21FAC
:103AA0006556ACC4442229F497FF2A43A72394AB5C
:103AB00039A093FCC3595B6592CC0C8F7DF4EFFF6A
:103AC000D15D84854F7EA86FE0E62CFE144301A3F0
:103AD000A111084E827E53F735F23ABDBBD2D72AE8
:103AE00091D386EB2DE9F047054616462A680F4626
:103AF000C2F3C50102EBC60200202A60B2EBC60F7A
:103B00006A68C1F1400401D2521C6A6002EB56722D
:103B10006A60A64218D36818224639461830FFF763
:103B200011FB05F1080005F118018146FFF77CFC47
:103B3000204604E039184846FFF776FC404600F17D
:103B40004008B045F6D90021321A3B186818BDE884
:103B5000F04719461830FFF7F5BA000010B590F895
:103B600021100024022903D00421816301243DE0B7
:103B700001680A6822F00E020A6001680A6822F0F1
:103B800001020A601A4A0168914201D1012121E033
:103B9000174A1432914201D110211BE0144A2832F5
:103BA000914201D1891515E0114A3C32914201D16F
:103BB00089140FE00E4A5032914202D14FF4803105
:103BC00008E00B4A6432914202D14FF4801101E0C7
:103BD0004FF08071064A083A5160012180F82110A7
:103BE000002180F82010416B01B18847204610BDAC
:103BF000080002402DE9F047054626480F460126F9
:103C0000017E01290FD00121814601762868DFF865
:103C100088804CF25034022808D0A2462046FFF794
:103C200077FBA8B131E00220BDE8F0872046FFF71E
:103C30006FFB08BB0120FFF70BFB2046FFF768FB7B
:103C4000D8F81010064621F00401C8F810101CE046
:103C50004FF0FF303860AC6811E02046FFF70AFBF8
:103C60005046FFF755FBD8F81010060021F002016E
:103C7000C8F8101001D03C6007E004F58064D5E975
:103C8000020100EB8120A042E7D8002189F818103A
:103C90003046C9E7E81000200020024003480169CF
:103CA00041F08001016100207047000000200240C7
:103CB0002DE9F05F07461C4888460024017E154622
:103CC0001E46012909D00121814601764CF2503A65
:103CD0005046FFF71DFB18B122E00220BDE8F09F1F
:103CE000012F02D0022F00D00427D346DFF83CA0DA
:103CF000220128463146FFF715FA81B208EB44004D
:103D0000FFF7CAFA5846FFF703FBDAF8102022F053
:103D10000102CAF8102018B9641CE4B2BC42E7D30F
:103D2000002289F81820D9E7E8100020002002407E
:103D300005480169090605D5044941600449416007
:103D40000020704701207047002002402301674592
:103D5000AB89EFCD2DE9F84FDFF890A100220AF1F1
:103D6000040B144601274FF00F090BF1040E00BF9E
:103D70000B6807FA04F52B40AB4274D1DFF870C131
:103D80004E68A6EB0C0866452BD00DDC032E34D014
:103D900005DC36B3012E19D0022E2FD11BE0112ED7
:103DA00016D0122E2AD119E0B8F5881F19D006DCDA
:103DB000B8F5803F15D0B8F5801F1FD111E0B8F5D8
:103DC000001F0ED0B8F5041F18D10AE0CA6815E02C
:103DD000CA68121D12E0CA6808320FE0CA680C32C5
:103DE0000CE08A682AB1012A4FF0080203D045612D
:103DF00004E0042202E0056100E00022FF2B01D86C
:103E0000064601E000F104064FEA840501D9A5F158
:103E10002005D6F800C009FA05F82CEA080C02FAC9
:103E200005F54CEA050CC6F800C04D68ED0057D505
:103E3000304DAE6946F00106AE61AD6924F003066F
:103E400005F0010500952C4D06EB050CDCF808503B
:103E5000A6074FEA167809FA08F6B543274EB0428E
:103E600002D1002610E03BE0254EB04201D10126F0
:103E70000AE0244EB04201D1022605E0224EB042B3
:103E800001D1032600E0042606FA08F62E43CCF8FA
:103E900008604D68DAF80060ED03554601D51E4311
:103EA00000E09E432E604D68DBF80060AD035D4688
:103EB00001D51E4300E09E432E604D68DEF8006091
:103EC000ED02754601D51E4300E09E432E604D680D
:103ED000AD020E4D2E6801D51E4300E09E432E60BC
:103EE000641C102CFFF444AFBDE8F88F00040140BF
:103EF00000001110001002400000014000080140C5
:103F0000000C014000100140001401400C0401406D
:103F10008068084000D0012070470AB101617047F5
:103F20000904FBE7014800687047000070000020AA
:103F300002480168491C01607047000070000020C1
:103F4000074810B5016841F010010160032000F03E
:103F50008BF8002000F006F800F018F8002010BDE3
:103F60000020024010B5044607484FF47A710068FB
:103F7000B0FBF1F000F031FB00222146501E00F0B2
:103F800053F8002010BD0000740000201E4808B542
:103F9000816941F001018161806900F001000090B8
:103FA000032000F061F8002211466FF00B0000F0D2
:103FB0003BF8002211466FF00A0000F035F80022AD
:103FC00011466FF0090000F02FF800221146501F33
:103FD00000F02AF800221146101F00F025F80022F8
:103FE0001146901E00F020F800221146501E00F0ED
:103FF0001BF80648416821F0E0614160416841F0EA
:104000000071416008BD0000001002400000014046
:1040100000F01F02012191404009800000F1E020E2
:10402000C0F8001170470000F0B40E4B1B680C463E
:10403000C3F30223C3F10705042D00D90425191D7C
:10404000072901D2002300E0DB1E012606FA05F154
:10405000491E214099409E40761E16403143F0BCD7
:1040600000F096BE0CED00E0064900F0070208687B
:104070004FF6FF03184040EA0220034A104308604D
:10408000704700000CED00E00000FA05BFF34F8F11
:1040900005480168054A01F4E06111430160BFF37E
:1040A0004F8F00BFFDE700000CED00E00400FA05B3
:1040B0002DE9F047DFF83C8105460E46D8F80000B0
:1040C00000F00700B0420CD2D8F8001021F0070130
:1040D0003143C8F80010D8F8000000F00700B042E3
:1040E00063D12878444C800705D56068A96820F022
:1040F000F000084360602878C00745D06868012850
:1041000016D02168022816D0890700294DDA616887
:1041100021F0030101436160FFF704FF696807466E
:1041200041F2883001290FD00229814619D027E0B9
:1041300021688903E9E78901E7E700BFFFF7F2FE9D
:10414000C11B494501D918E081466068C0F3810070
:104150000128F3D118E000BFFFF7E4FEC11B494579
:104160000BD86068C0F381000228F5D10CE000BFD5
:10417000FFF7D8FEC11B494502D90320BDE8F087EF
:10418000606810F00C0FF3D1D8F80010404601F031
:104190000701B1420BD9016821F0070131430160E9
:1041A000006800F00700B04201D00120E6E728785F
:1041B000400705D56068E96820F4E0600843606066
:1041C0002878000706D56068296920F4605040EA25
:1041D000C100606000F03CF86168084AC1F3031157
:1041E000515CC840064908600020FFF7BBFE002074
:1041F000C4E7000000200240001002407C8000085C
:10420000740000200148006870470000740000201E
:104210000448054900684968044AC1F30221515C19
:10422000C840704774000020001002408C800008D5
:104230000448054900684968044AC1F3C221515C39
:10424000C840704774000020001002408C800008B5
:1042500010B512A385B00FCB8DE80F0013A0144B3F
:10426000006804905A68134802F00C0104290FD02A
:1042700008290DD1C2F38344D2031DF8041009D5D7
:104280005A6804ABC2F340429A5CB0FBF2F0484378
:1042900005B010BD08484843FAE7000002030405D2
:1042A000060708090A0B0C0D0E0F10100102000082
:1042B0000010024000127A0000093D002DE9F84F7D
:1042C00004460078B94DC00748D06868C0F3810043
:1042D000012807D06868C0F38100022809D1686806
:1042E000C00306D52868800338D5606800286FD0E1
:1042F00034E06068B0F5803F0BD010B1B0F5A02F6E
:1043000011D0286820F480302860286820F48020AC
:1043100002E0286840F480302860606888B1FFF7C8
:1043200001FE064609E0286840F480202860F0E796
:10433000FFF7F8FD801B642875D828688003F7D53F
:104340000CE0FFF7EFFD064605E000BFFFF7EAFDD2
:10435000801B6428F0D828688003F7D42078944E16
:1043600080074FF001094FF000083BD5686810F056
:104370000C0F07D06868C0F38100022809D1686873
:10438000C00306D42868800714D5206901281FD1EE
:1043900010E02069B0B1C6F80090FFF7C3FD0746F2
:1043A00005E000BFFFF7BEFDC01B0228C4D8286887
:1043B0008007F7D52868616920F0F80040EAC1005D
:1043C00028600FE0C6F80080FFF7ACFD074606E066
:1043D000E9E000BFFFF7A6FDC01B022823D828682C
:1043E0008007F7D4207800072CD57248A169D9B18D
:1043F000C0F80090FFF796FD074604E0FFF792FD36
:10440000C01B02280FD8686A8007F7D56A484FF4A6
:10441000FA510068B0FBF1F0009000BF0098411E17
:104420000091FAD20EE080E0C0F80080FFF77AFD3C
:10443000074604E0FFF776FDC01B022875D8686ABE
:104440008007F7D42078400760D5E8690027C000CE
:1044500008D4E86940F08050E861E869012700F07D
:104460008050009055480168C90513D401688346FF
:1044700041F480710160FFF755FD824606E000BF00
:10448000FFF750FDA0EB0A0064284ED8DBF80000CF
:10449000C005F5D5E06801280AD008B1052813D079
:1044A000286A20F001002862286A20F0040002E057
:1044B000286A40F001002862E06841F2883B98B128
:1044C000FFF730FD82460BE0286A40F004002862C6
:1044D000EEE700BFFFF726FDA0EB0A0159455AD8C9
:1044E000286A8007F6D50CE0FFF71CFD824605E040
:1044F000FFF718FDA0EB0A0159454CD8286A800740
:10450000F6D41FB1E86920F08050E861E06988B313
:104510006968C1F38101022945D00228C6F860808C
:1045200004D0FFF7FFFC044638E034E0FFF7FAFC64
:10453000074604E0FFF7F6FCC01B02282BD82868CA
:104540008001F7D4206AB0F5803F05D16868A16882
:1045500020F4003008436860D4E908010843696822
:1045600021F4741108436860C6F86090FFF7DAFC24
:10457000044606E015E000BFFFF7D4FC001B02284C
:1045800009D828688001F7D50BE000BFFFF7CAFC07
:10459000001B022802D90320BDE8F88F286880019B
:1045A000F4D40020F8E70120F6E7000000100240F4
:1045B000000042428004424274000020007000402B
:1045C0004FF0E0210428086903D020F004000861BE
:1045D000704740F00400FAE7704710B5401EB0F194
:1045E000807F01D3012010BD4FF0E02460610F21D6
:1045F000601700F0CDFB0020A061072020610020A3
:1046000010BD10B5FFF7E8FF10BD7047704730B51B
:1046100090F83C20012A20D0012280F83C2002237F
:1046200080F83D3003685C6824F070045C600368C7
:104630005C680D682C435C6003689C6824F080040F
:104640009C6003689C6849680C439C6080F83D202E
:10465000002180F83C10084630BD022030BD10B566
:10466000040003D094F83D0010B107E0012010BD14
:10467000002084F83C00204600F00CF8022084F86A
:104680003D00211D206800F0E5FE012084F83D007A
:10469000002010BD08B50068B0F1804F08D1054872
:1046A000C16941F00101C161C06900F001000090E1
:1046B00008BD0000001002400168CA6842F0010213
:1046C000CA600068016841F0010101600020704784
:1046D00070B5044690F83C00012817D0012584F8F5
:1046E0003C50022084F83D002068826822F0770266
:1046F00022F47F4282600868502837D00DDC2028E1
:1047000059D005DC88B3102841D151E0022070BD9A
:10471000302853D040283AD13FE060282ED070286E
:104720000BD0B0F5805F03D0B0F5005F2FD110E063
:104730002068816821F0070115E0CB68D1E90121EB
:10474000206800F0BDFE2168886840F0770088602E
:104750001DE0CB68D1E90121206800F0B1FE20689E
:10476000816841F48041816011E01EE0CA684968B7
:10477000206800F0B7FE5021206806E0CA6849684A
:10478000206800F0C0FE6021206800F0A3FE84F8DD
:104790003D50002084F83C0070BDCA68496820681C
:1047A00000F0A0FE40212068EFE700212068ECE740
:1047B00010212068E9E720212068E6E73021206801
:1047C000E3E7704770B50446006801694FF00005E3
:1047D000C943890715D4C168C943890711D4E91EA3
:1047E000016101202077206880698007204602D07F
:1047F000FFF7E7FF04E000F098F8204600F096F895
:10480000257720680169C943490717D4C168C9439E
:10481000490713D46FF0040101610220207720685A
:10482000806910F4407F204602D0FFF7CAFF04E001
:1048300000F07BF8204600F079F8257720680169C0
:10484000C943090716D4C168C943090712D46FF0D8
:1048500008010161042020772068C0698007204694
:1048600002D0FFF7AEFF04E000F05FF8204600F052
:104870005DF8257720680169C943C90617D4C16866
:10488000C943C90613D46FF01001016108202077D5
:104890002068C06910F4407F204602D0FFF791FFE6
:1048A00004E000F042F8204600F040F82577206848
:1048B0000169C943C90708D1C168C943C90704D1FF
:1048C000891E0161204600F033F820680169C94360
:1048D000090609D4C168C943090605D46FF08001EF
:1048E00001612046FFF791FE20680169C94349062E
:1048F00009D4C168C943490605D46FF0400101617C
:10490000204600F025F820680169C94389060BD4C8
:10491000C168C943890607D46FF0200101612046B0
:10492000BDE87040FFF772BE70BD70477047000071
:10493000054910B5884206D1044803F035F8BDE8B2
:10494000104002F0CDBB10BD7C0000200000002014
:104950007047704770B5026804461068D1685369A3
:1049600010F00F0F50D003F0010501F4907635439D
:104970005DD0C20705D0CA0503D5E26B42F0010243
:10498000E263420705D5DA0703D0E26B42F0020288
:10499000E263820705D5DA0703D0E26B42F0040236
:1049A000E263020705D5DA0703D0E26B42F00802A2
:1049B000E263E26B002A33D0800604D5880602D574
:1049C000204600F0C8FD20684069E16BC0F380100C
:1049D000090700D428B3204600F0AFFD20684169E4
:1049E00049061AD5416921F040014161606BA0B1CF
:1049F0001B494163606BFFF7B1F8002810D0606B72
:104A0000416BBDE870400847830610D58B060ED574
:104A10002046BDE8704000F09EBD2046FFF799FF9C
:104A200070BD2046FFF795FF0020E06370BD0306D0
:104A300006D50B0604D52046BDE8704000F08EBEBA
:104A40004006F3D54806F1D5D168204621F0400153
:104A5000D160202184F8391000F036F970BD0000D3
:104A60002B55000870B5040004D094F839000025D7
:104A700010B106E0012070BD84F83850204600F0E7
:104A800023F8242084F839002068C16821F40051FB
:104A9000C160204600F0AAFD2068016921F4904120
:104AA00001612068416921F02A0141612068C168E3
:104AB00041F40051C160E563202084F8390084F896
:104AC0003A00002070BD000070B51C4E0368002441
:104AD0001B49022003221B4D86B0B34211D18B69C2
:104AE00043F480438B618969039201F4804104910E
:104AF0000102CDE9001069462846FFF72BF9281579
:104B000013E0114EB34217D1CB6943F40033CB61AC
:104B1000C969039201F4003104910421CDE9001028
:104B200069462846FFF716F90820CDE900046946D2
:104B300028460294FFF70EF906B070BD0038014018
:104B400000100240000801400044004090F83A3054
:104B5000202B22D1F9B1F2B190F83830012B1CD0C2
:104B600081628285C2850021C163222280F83A20B9
:104B700080F838100168CA6842F48072CA6001681F
:104B80004A6942F001024A610068C16841F02001AF
:104B9000C16000207047012070470220704700006C
:104BA00010B50068074988420AD10121064802F081
:104BB00095F9BDE81040012203490448FFF7C6BF3C
:104BC00010BD00000044004048000020FC00002010
:104BD0002DE9F843044690F839001F4616460D4665
:104BE000202850D1A5B19EB194F8380001284AD0B0
:104BF000012084F838004FF00008C4F83C802120E0
:104C000084F83900FFF78EF9A6848146E68426E011
:104C10000120BDE8F883E08C401EE084A0684B468C
:104C2000B0F5805F4FF000024FF080012046009702
:104C300003D000F0C4FDE8B90DE000F0C0FDC8B934
:104C400028882168C0F308004860206908B16D1CFD
:104C500005E0AD1C03E0216815F8010B4860E08C0D
:104C60000028D8D14B46002240212046009700F072
:104C7000A6FD08B10320CCE7202084F8390084F891
:104C800038800020C5E70220C3E790F83930202B98
:104C900018D1A9B1A2B190F83830012B12D001621D
:104CA0008284C2840021C163212280F8392080F8E7
:104CB00038100068C16841F08001C1600020704771
:104CC00001207047022070477047FEE7174810B573
:104CD000816986B041F020018161816901F0200184
:104CE0000491816941F004018161816901F004014D
:104CF0000491816941F0080181618069002400F01C
:104D0000080004904FF48060CDE90004694608482B
:104D10000294FFF71FF84FF48070CDE90004694654
:104D200004480294FFF716F806B010BD00100240C8
:104D3000000C01400008014010B5134886B04FF048
:104D40008041016041F61F410024C0E9011409219E
:104D5000C0E903148461FFF782FC00B1FEE74FF461
:104D60008050009069460848FFF7B2FC00B1FEE7AA
:104D7000049404A904480594FFF749FC002800D0D6
:104D8000FEE706B010BD00007C000020FEE7704783
:104D90000907090E002806DA00F00F0000F1E020F4
:104DA00080F8141D704700F1E02080F8001470476F
:104DB000704700000EB500200090019002906846F8
:104DC00001F06EFC052001F001F8ADF802000F497A
:104DD00029208DF80400D1F80D078DF80500401C3E
:104DE000C1F80D070921684602F010F88DF8080097
:104DF0000921684603F092F8010002D504A000F0F2
:104E000019FD0921684602F013F80EBD7401002057
:104E10004552524F523A207561727420777269740C
:104E200065206572726F72202564200A0000000000
:104E30002DE9F0419AB00D46804664216846FEF7A0
:104E40009AF96C46B8F1000F41D005F1090086B21D
:104E5000FF208DF800008DF80100300A8DF8020067
:104E60001F491B208DF803608DF80400D1F80D0751
:104E70008DF80500401CC1F80D0700278DF806705D
:104E80009DF807008DF80700280A8DF808008DF8B6
:104E900009502A4641460DF10A000A34FEF752F93C
:104EA0002C44012020706770311D684601F0AEFF70
:104EB000A070311D684603F031F841B2002909DACB
:104EC00008A000F0B7FCB81E1AB0BDE8F0814FF0A2
:104ED000FF30F9E70BA000F0ADFC0020F4E7000084
:104EE000740100204552524F523A2075617274206D
:104EF0007772697465206572726F72202564200A6A
:104F0000000000004D435520526561647920546FC4
:104F10002055706461746520524F4D200A000000D6
:104F20000EB50020009001900290684601F0B8FB99
:104F3000052000F04BFFADF802000F4927208DF847
:104F40000400D1F80D078DF80500401CC1F80D07CD
:104F50000921684601F05AFF8DF8080009216846CA
:104F600002F0DCFF010002D504A000F063FC09217F
:104F7000684601F05DFF0EBD740100204552524F9E
:104F8000523A207561727420777269746520657277
:104F9000726F72202564200A000000002DE9F041A4
:104FA00088B004004FF000054FF0FF380ED02068A5
:104FB000384E00BA20F0FF01E0784FF4D0470143AB
:104FC0007160B94206D934A000F034FC404608B004
:104FD000BDE8F0813EA000F02DFC70687066454988
:104FE000384600F0FDFE44A000F024FC60792179F1
:104FF00000EB012080B28046014645A000F01AFC7B
:105000004246A11D6846FEF79DF846A000F012FC3E
:1050100000246F4645A0395D00F00CFC641CA4B26E
:10502000202CF7D343A000F005FC00247819417828
:10503000785D00F050FE3119AD1C641CA4B281F8FB
:105040006800EDB2102CF1D33BA000F0F3FB00247C
:10505000301990F8681035A000F0ECFB641CA4B285
:10506000102CF5D333A000F0E5FB36A000F0E2FBF6
:1050700008480830FEF7C6F941466846FFF7D8FEF3
:10508000010005D034A000F0D5FB6FF001009EE7D1
:1050900000209CE7DC0C0020557064617465466953
:1050A0006C6553697A65204572726F72202C557059
:1050B00064617465204661696C6564202C66696C66
:1050C0006553697A65203D202564200A00000000B0
:1050D00055706461746546696C6553697A65204CE6
:1050E0006567616C202C73697A65203D20256420FA
:1050F0000A00000000980008666C61736820657201
:105100006173652066696E697368656421210A00B0
:1051100046696C654D44356C656E20203D202564E4
:10512000200000004D44353A200000002530327840
:10513000200000000D0A00004D44355F4865783AB4
:1051400020000000474167656E745F4D4435496E2D
:105150006974200A0000000050726F5F4432575F8C
:105160005570646174655265616479204572726F2F
:1051700072202C4572726F7220436F6465203D204F
:105180002564200A00000000F0B5C5B00C460028D8
:1051900069D00A4601466846FDF7D4FFBDF8000015
:1051A00000F014FE0546BDF8020000F00FFE0746B1
:1051B0000246231F2946394800F03CFB38486E461A
:1051C00000EB0522201F81B201A802F013FF354831
:1051D000221F311D0446FEF785FCBD425CD1002034
:1051E000419042904390449041A92046FEF7E4F854
:1051F0002DA000F01FFB2B48102241A96030FDF7C5
:10520000C5FF284C083C04F1600600282ED032A0CF
:1052100000F010FB3AA000F00DFB002541AF3BA0D1
:10522000795D00F007FB6D1CADB2102DF7D339A0EE
:1052300000F000FB38A000F0FDFA0025601990F89E
:10524000681032A000F0F6FA6D1CADB2102DF5D347
:1052500030A000F0EFFA18213046FDF78CFF6FF018
:10526000010045B0F0BD4FF0FF30FAE72DA000F08F
:10527000E1FA3C4D1820294600F0B2FD4EF6EE60F2
:10528000A4F860002A461821304602F0B3FE36A08A
:1052900000F0D0FA02F0D4FC0020E2E7948000088D
:1052A00000970008E40C00204D44352043616C63F6
:1052B000756C6174652053756363657373202C206E
:1052C00057696C6C20436865636B20546865204D9A
:1052D0004435202E2E0A20004D64355F4361636CF7
:1052E00020436865636B204661696C64202C4D43E4
:1052F00055204F5441204661696C640D0A2000001E
:1053000043616C63204D44353A20000025303278EB
:10531000200000000D0A000053534C204D44353A44
:10532000200000004D443520436865636B205375B1
:105330006363657373202C53746F726167652020FB
:10534000524F4D2053756363657373202C20577241
:105350006974652055706461746520466C61670AE4
:1053600020000000002C000853797374656D2057ED
:10537000696C6C20526573746172742E2E2E200A33
:1053800000000000704710B5FEF7D2FDBDE81040E8
:10539000FFF737B930B58FB001210804CDE900100F
:1053A0000024029402250491CDE907504FF4E01047
:1053B00009906846FEF782FF00B1FEE70F20CDE9B5
:1053C0000A054FF48060CDE90C4002210AA80E9432
:1053D000FEF76EFE00B1FEE7FEF714FF4FF47A71A0
:1053E000B0FBF1F0FFF7F9F80420FFF7E9F800222D
:1053F0001146501EFEF718FE0FB030BD0D48016873
:1054000041F00101016041680B4A114041600168AF
:105410000A4A11400160016821F48021016041685D
:1054200021F4FE0141604FF41F01816005490448E9
:1054300008607047001002400000FFF8FFFFF6FE12
:105440000030000808ED00E00148FFF7BBB900009C
:105450007C000020F0B50268164B174C174D4FF03A
:105460008047984205D0B84203D0A04201D0A8425C
:1054700003D122F070064A683243984205D0B84200
:1054800003D0A04201D0A84203D122F44074CA68DC
:10549000224322F080044A69224302608A68C26281
:1054A0000A688262984201D1096901630121416160
:1054B000F0BD0000002C0140000400400008004046
:1054C00010B5846842EA032224F47F440A4322434D
:1054D000826010BD826822F070020A4342F0070128
:1054E0008160704710B5036A046A24F00104046205
:1054F000846924F0F00444EA021423F00A020A4307
:105500008461026210BD10B5036A23F010030362C8
:105510008369046A23F4704343EA023224F0A0034F
:1055200043EA01118261016210BD10B5406A002199
:10553000C185C184FFF70DFA10BD0168CA6822F465
:105540009072CA6001684A6922F001024A61202112
:1055500080F83A10704710B590F83A10222901D01F
:10556000022010BD8168B1F5805F11D0016900296A
:1055700001681FD0496801F07F03816A4A1C82627A
:105580000B70C18D491E0904090CC18518D02BE090
:105590000269816A002A0268526805D0D2B20A8084
:1055A000816A491C8162ECE7C2F308020A80816AC1
:1055B000891CF7E74A68816A4B1C83620A70E0E73E
:1055C0000168CA6822F02002CA600168CA6822F431
:1055D0008072CA6001684A6922F001024A61202192
:1055E00080F83A10FFF7DCFA002010BD2DE9F041F9
:1055F000044600680169E26821F4405111430161E9
:105600002169A0680843616908432168CA6841F2BA
:105610000C639A430243CA6020684169A26921F47D
:105620004071114341614C4920686425322688420B
:105630003CD1FEF7FDFD00EBC00101EB00106168FD
:105640008900B0FBF1F7FEF7F3FD00EBC00101EBC1
:1056500000106168B0468900B0FBF1F0B0FBF5F0D6
:105660006FF01801484307EB800106EB0110B0FB17
:10567000F5F000F0F006FEF7DBFD00EBC00101EBFA
:10568000001061688900B0FBF1F0B0FBF5F006EBAB
:105690000016FEF7CDFD00EBC00101EB00106168C4
:1056A0008900B0FBF1F7FEF7C3FD3BE0FEF7B0FD6C
:1056B00000EBC00101EB001061688900B0FBF1F75D
:1056C000FEF7A6FD00EBC00101EB00106168B046DB
:1056D0008900B0FBF1F0B0FBF5F06FF01801484322
:1056E00007EB800106EB0110B0FBF5F000F0F006CF
:1056F000FEF78EFD00EBC00101EB00106168890030
:10570000B0FBF1F0B0FBF5F006EB0016FEF780FD04
:1057100000EBC00101EB001061688900B0FBF1F7FC
:10572000FEF776FD00EBC00101EB00106168890017
:10573000B0FBF1F0B0FBF5F06FF01801484307EB58
:10574000800108EB0110B0FBF5F0216800F00F00BC
:1057500030448860BDE8F0810038014090F839108D
:10576000212901D0022070478168B1F5805F016A6C
:105770000BD04A1C0262026809785160C18C491E34
:105780000904090CC1840ED017E009880268C1F32E
:105790000801516001690029016A02D0491C0162B7
:1057A000ECE7891CFBE70168CA6822F08002CA6046
:1057B0000068C16841F04001C160002070472DE9D8
:1057C000F041984617460E460446069D1DE0681CAB
:1057D0001BD02DB1FEF7A6FBA0EB0800A84214D900
:1057E0002068C16821F4D071C1602068416921F04E
:1057F00001014161202084F8390084F83A0000203A
:1058000084F838000320BDE8F0812068006836EA9B
:10581000000004D00020B842D9D00020F3E70120D6
:10582000F9E700000148FFF795B80000FC000020F0
:10583000FEE700000FB4054B10B503A9044A029817
:1058400000F018F810BC5DF814FB00003D5E000885
:105850007800002002E008C8121F08C1002AFAD10F
:1058600070477047002001E001C1121F002AFBD1E0
:10587000704700002DE9FF4F8DB00F46054600260A
:1058800006E025280BD0DDE90F1290476D1C761C31
:1058900028780028F5D111B03046BDE8F08F0024FB
:1058A000A246A1460122EC4900E0044315F8013F5D
:1058B000203B02FA03F00842F7D128782A2810D0BA
:1058C0006FF02F022878A0F13001092914D80AEBD3
:1058D0008A0102EB410144F0020400EB010A6D1C55
:1058E000F0E701CF5FEA000A03D544F40054CAF19F
:1058F000000A44F002046D1C28782E2817D115F8F0
:10590000010F44F004042A280ED06FF02F022878EB
:10591000A0F1300109290AD809EB890102EB410104
:1059200000EB01096D1CF2E757F8049B6D1C287809
:105930006C280FD006DC4C2817D068280DD06A28B8
:1059400014D104E0742810D07A280FD10DE044F46B
:1059500000140AE044F4801401E044F4401469782F
:10596000814202D104F580146D1C6D1C2A786E2AC8
:105970001FD00CDC632A31D004DC002A8BD0582ADB
:1059800011D1A3E0642A68D0692A0CD165E0732A9A
:105990002ED004DC6F2A73D0702A04D19BE0752AC4
:1059A0006FD0782A6ED01046DDE90F129047761C32
:1059B00050E1C4F30250022806D0032809D004287D
:1059C00001CF09D0066045E101CFF117C0E90061C0
:1059D00040E101CF06803DE106703BE117F8040B82
:1059E0008DF8000000208DF80100EB46012003E057
:1059F00057F804BB4FF0FF3061074FF0000102D4AD
:105A00000DE008F10101884649450FDA8045F8DBD1
:105A10001BF808100029F4D108E008F101018846BC
:105A20008142FADB1BF808100029F6D1DDE90F23CB
:105A3000AAEB08008146214600F036F9304400EB1D
:105A4000080604E0DDE90F121BF8010B9047B8F1DE
:105A50000108F7D221464846F7E00A21C4F3025371
:105A60004FF0000B0891022B04D001CFC117032B7C
:105A700009D00AE0FF1D27F00707F7E8020108E058
:105A800032E01FE020E000B2C117042B01D140B288
:105A9000C117031E71F1000307DA4FF0000CD0EBC1
:105AA0000C006CEB01012D2302E0230504D52B2310
:105AB0008DF82430012303E0E30701D02023F7E72A
:105AC000984658E00A2110E010210EE010204FF017
:105AD000000B08900CE010214FF0000B44F0040480
:105AE0004FF00809089103E008214FF0000B0891DE
:105AF000C4F30253022B04D001CF0021032B06D0A4
:105B000006E0FF1D27F00707F7E8020103E080B277
:105B1000042B00D1C0B24FF0000823072BD5702A08
:105B200007D0DDF820C08CF0100C5CEA0B0C05D01F
:105B30000EE040238DF82430012308E050EA0103F1
:105B400006D030238DF824308DF825200223984686
:105B5000DDF820C08CF0080C5CEA0B0C0BD150EA8D
:105B6000010301D1630706D530238DF824304FF0AF
:105B70000108A9F10109582A04D038A20B9208AAF9
:105B80000A920BE03AA2F9E75B46089AFDF70BFB95
:105B90000B9B9B5C0A9A521E0A92137050EA0102F8
:105BA000F2D10A98ADEB000000F1200B600702D59E
:105BB00024F4803401E04FF00109D94502DDA9EB5E
:105BC0000B0000E0002000EB0B0141440890AAEB21
:105BD000010AE00306D4DDE90F232146504600F018
:105BE00063F806444FF0000908E009A911F809001C
:105BF000DDE90F12904709F10109761CC145F4DB7C
:105C0000E0030CD5DDE90F232146504600F04CF8A7
:105C1000064404E0DDE90F1230209047761C089915
:105C2000481E08900029F5DC08E00A980A990078D7
:105C3000491C0A91DDE90F129047761CBBF1000167
:105C4000ABF1010BF1DC21465046DDE90F2300F0FA
:105C500019F806446D1C1BE6092801003031323367
:105C60003435363738396162636465660000000098
:105C70003031323334353637383941424344454682
:105C8000000000002DE9F041044600251E4617469D
:105C9000880404D405E039462020B0476D1C641EFA
:105CA000F9D52846BDE8F0812DE9F04104460025EC
:105CB0001E469046C80301D5302700E020278804FF
:105CC00004D505E041463846B0476D1C641EF9D541
:105CD0002846BDE8F08110B50023A0F130041A4633
:105CE000092C01D8E3B20BE0A0F14104052C01D846
:105CF000373804E0A0F16104052C01D85738C3B24D
:105D0000A1F13000092801D8C2B20BE0A1F1410095
:105D1000052801D8373904E0A1F16100052801D830
:105D20005739CAB202EB0310C0B210BD70B50A4DAC
:105D30004FF48074002221462846FEF7EEF8282012
:105D400001F0DCFE012221462846FEF7E6F8BDE818
:105D50007040282001F0D2BE000C01402DE9F04136
:105D60000B4F054600244FF40076002D01DA012286
:105D700000E0002231463846FEF7CFF86D00FFF70D
:105D8000D5FF641CE4B2202CEFD3BDE8F081000005
:105D9000000C014010B503464FF04044104602F09D
:105DA000A9F844EA0074084602F0A4F844EA8064C2
:105DB000184602F09FF844EA006040EA024040EAD8
:105DC0000120BDE810401843FFF7C8BF014600207E
:105DD0000A0A62F3070061F30F20704700BA7047A8
:105DE00070B50E464FF48061884200D208468105A6
:105DF00004D0012101EB9025002406E0850AFBE791
:105E0000E0B2314600F004F8641CAC42F8D370BD37
:105E100030B585B00C460546FDF78AFF04EB8521B9
:105E20000020029100900121CDE9031004A96846E9
:105E3000FDF7E0FEFDF732FF05B030BD13B54FF6BC
:105E4000FF73012269460248FEF7C2FE00981CBD9E
:105E5000BC0000202DE9F0470024804626464FF084
:105E60000109114F1AE000BFC4EBC40101EB410569
:105E7000D8F8010005F1090101446A1D09881044A0
:105E800089B20068FEF744F830B9D8F80100415DE6
:105E900009FA01F0304386B2641CE4B23878A042BB
:105EA000E2D83046BDE8F0870000002048B1420744
:105EB00007D000F00700C0F10800884203D300209B
:105EC00070470829FBD90120704730B5002248B936
:105ED000501E30BD8B1A0344845C13F8015D855459
:105EE0001C70521CB2EB510FF4D3002030BD0000E7
:105EF00070B505000C464FF0000028D0002C26D0CD
:105F000021782A78914203D014A0FFF793FC012056
:105F1000D4F80110D5F80120914203D015A0FFF765
:105F200089FC0120D4F80510D5F80520914203D052
:105F300015A0FFF77FFC0120D4F80910D5F809203F
:105F4000914203D015A0FFF775FC012070BD18A089
:105F5000FFF770FC4FF0FF3070BD000076616C758C
:105F6000654C45445F4F6E4F6666204368616E67BF
:105F700065640A0076616C75654C45445F52204348
:105F800068616E6765640A0076616C75654C4544AE
:105F90005F47204368616E6765640A0076616C75CF
:105FA000654C45445F42204368616E6765640A0042
:105FB00067697A436865636B5265706F72742045D8
:105FC00072726F72202C20496C6C6567616C205076
:105FD0006172616D0A000000F8B517460C460500B5
:105FE0004BD0ECB3E7B3287804F10106C00710D01A
:105FF000217811206B1C885520780021401C2070CE
:10600000012002460090084601F028F800B1012066
:106010003870287880070CD5217812208855207890
:106020000021401C2070AA78012001F061F8C7F817
:106030000100287840070CD5217813208855207856
:106040000021401C2070EA78012001F051F8C7F8C7
:106050000500287800070ED521781420885500E027
:106060000BE020780021401C20702A79012001F0EB
:106070003FF8C7F809000020F8BD03A0FFF7DAFBDE
:106080004FF0FF30F8BD000067697A4461746150D9
:106090006F696E74324576656E74204572726F72E8
:1060A000202C20496C6C6567616C20506172616DB9
:1060B0000A00000038B505000C4623D014B30020B8
:1060C000207015F8010B0B460021009001220846B4
:1060D00000F09CFF01212046FFF7F7FE2A6800210F
:1060E000012001F008F860706A680021012001F0C9
:1060F00002F8A070AA680021012000F0FCFFE07007
:10610000002038BD02A0FFF795FB4FF0FF3038BDEF
:1061100067697A44617461506F696E747332526555
:10612000706F727444617461204572726F72202CBA
:1061300020496C6C6567616C20506172616D0A006A
:106140002DE9F041074600F05BF81E4904468846F9
:106150003846FFF7CDFE1B4D113D012811D11AA085
:10616000FFF768FB29463846FFF7A4FF20B9042251
:106170002946104600F0E6FE0D2239464046FCF75F
:10618000E1FF1748B4FBF0F100FB1140002816D1E5
:10619000144EB068A04212D013A0FFF74BFB294663
:1061A0003846FFF787FF20B904222946104600F041
:1061B000C9FE0D2239464046FCF7C4FFB460BDE875
:1061C000F08100007E0C00206368616E6765642CBE
:1061D000207265706F727420646174610A0000003F
:1061E000C027090050000020496E666F3A20363003
:1061F0003053207265706F727420646174610A009C
:1062000001484068704700004800002010B5144C59
:1062100094F8160701281BD194F81507022818D204
:10622000FFF7EEFFD4F89D1A401AC82810D9FFF7DF
:10623000E7FF014694F81537D4F89D2A09A004F227
:106240001574FFF7F7FA00F0A7FD2078401C2070C6
:1062500010BDBDE810404FF463710C48FCF78BBFD4
:10626000740100205761726E696E673A67697A50EF
:10627000726F746F636F6C526573656E64446174A2
:10628000612025642025642025640A0089080020F7
:106290003EB5F8B101680091406801909DF8040096
:1062A000401C8DF804000520FFF790FDADF80200BA
:1062B0000921684600F0AAFD8DF80800092168460A
:1062C00001F02CFE040003D5014605A0FFF7B2FA49
:1062D00020463EBD09A0FFF7ADFA4FF0FF303EBDAE
:1062E0004552523A20756172742077726974652044
:1062F0006572726F72202564200A00004552523A7E
:106300002067697A50726F746F636F6C436F6D6D45
:106310006F6E41636B206461746120697320656DE9
:10632000707479200A0000003EB50D46040021D0AB
:10633000684600F0B5F912208DF8040060798DF8F8
:1063400005000620FFF742FDADF802008DF8085069
:106350000A21684600F05AFD8DF809000A216846B6
:1063600001F0DCFD040003D5014605A0FFF762FA49
:1063700020463EBD09A0FFF75DFA4FF0FF303EBD5D
:106380004552523A207561727420777269746520A3
:106390006572726F72202564200A000067697A5066
:1063A000726F746F636F6C4572726F72436D6420AD
:1063B0004572726F72202C20496C6C6567616C208D
:1063C000506172616D0A000010B59EB004004FD09C
:1063D000684600F065F902208DF8040060798DF8B8
:1063E000050026A02022D0E90010CDE9021026A148
:1063F000D1E90001CDE9040126A0D0E90010CDE9E2
:10640000081027A1D1E90001CDE9060127A10AA8BA
:10641000FCF798FE20222EA10DF15200FCF792FE0F
:106420000020CDF84A00CDF84E009DF8510040F014
:1064300002008DF851000020FFF7C8FCADF84800BD
:106440006F20FFF7C3FCADF802007321684600F02F
:10645000DDFC8DF872007321684601F05FFD0400D9
:1064600003D5014623A0FFF7E5F920461EB010BD75
:1064700027A0FFF7DFF94FF0FF30F7E7303030307B
:1064800030303034000000003030303030303032C6
:106490000000000030333033303030360000000070
:1064A000303330313031303000000000376638345E
:1064B00037613435326635313436396338393736F9
:1064C00035313337326566636631313100000000A3
:1064D0003434363266393961666231613435323985
:1064E0003831366330323739376138346238616574
:1064F000000000004552523A207561727420777294
:10650000697465206572726F72202564200A00002C
:1065100067697A50726F746F636F6C476574446516
:1065200076696365496E666F204572726F72202CC2
:1065300020496C6C6567616C20506172616D0A0066
:106540002DE9F84F4FF0000690460C465FEA000A2E
:1065500035464FF0FF390ED06CB1B8F1000F0AD0BC
:10656000504601F072FB10F0FF0707D04FF0FF0B11
:10657000DFF8F89055E03EA0FFF75CF94846BDE82B
:10658000F88F01226946504601F095FBF0B399F867
:106590000100FF2805D19DF80000FF2807D05528ED
:1065A00033D099F80010484601291BD02DE099F806
:1065B0000010484661B18188042926D9A94224D017
:1065C00084F800B084F801B00221A9F804101CE09E
:1065D00084F800B084F801B002218180012189F89B
:1065E000001012E080889DF800202254401C80B2E8
:1065F000A9F80400042808D96088FFF7E7FB001D0C
:1066000085B2B9F80400A8420DD000E008E09DF87A
:10661000001089F8011099F80210491C89F802103D
:10662000761CBE42ADDBB9F804104E4604291AD9D7
:10663000A94218D1204600F0E9FBB288A11811F850
:10664000011C81420CD121462A460846FCF77AFDFE
:10665000A8F8005000203070B080B07070708EE7E5
:106660006FF001008BE7012089E700005000002057
:1066700067697A50726F746F636F6C4765744F6EA1
:10668000655061636B6574204572726F72202C20B7
:10669000496C6C6567616C20506172616D0A000025
:1066A00010B538B1002101604160FF2101704170D7
:1066B000002010BD02A0FFF7BDF84FF0FF3010BD65
:1066C0004552523A2067697A50726F746F636F6CEB
:1066D00048656164496E6974206865616420697306
:1066E00020656D707479200A000000002DE9F043E8
:1066F000ADF5617D984617465FEA010906464FF001
:10670000000525D0B8F1010F2BD0781D84B22346A7
:106710002A46394628A0FFF78DF8FF208DF80000A3
:106720008DF80100200A8DF802008DF803403079C1
:10673000401C8DF8040070798DF8050000208DF85C
:10674000060008208DF80780B8F1010F0DD017E082
:1067500023A0FFF76FF84FF0FF300DF5617DBDE826
:10676000F083357AE819801DD0E78DF808502A4665
:1067700006F109010DF10900FCF7E4FC05F109003F
:106780006D4627B128443A464946FCF7DBFC211DFB
:10679000684600F03BFB2919C870211D684601F0CE
:1067A000BDFB010005D514A0FFF744F86FF0010010
:1067B000D3E70020D1E700006C656E203D20256402
:1067C000202C20734469644C656E203D2025642094
:1067D0002C646174615F6C656E203D2025640A0045
:1067E0005B4552525D202064617461204973204EE4
:1067F000756C6C200A0000007561727420777269F4
:106800007465206572726F72202564200A00000092
:106810002DE9F05F0C000A9D94F800801F46164693
:106820004FF0FF3B03D017B10DB120B14CE027A0D2
:10683000FFF700F823E0314816218146FCF79BFC66
:106840004046DFF8BC804FF0000A012806D04FF028
:10685000030902280CD0052836D11EE0274A4946F4
:106860005C32601CFFF7B8FB012188F8001029E0BA
:106870002249583101F11100FFF71CFC10B15846B4
:10688000BDE8F09F1D482138D0F87900C7F8010015
:1068900087F800900520286016E0721E611C1948D8
:1068A000FCF750FC761EC8F80967144998F8A13A1D
:1068B000491C10225A5498F8A11A491C88F8A11AA8
:1068C00088F80090C5F800A00020D9E767697A50E1
:1068D000726F746F636F6C49737375656450726F18
:1068E00063657373204572726F72202C20496C6C43
:1068F0006567616C20506172616D0A00150C0020A3
:1069000074010020F90400202DE9F041060031D087
:106910003089FFF75BFA8D4F30818D4C38784FF01E
:106920000208C0F38001307A04F6B825C0F3800273
:10693000914241D042074FF000014FEAC07020D58C
:1069400050B194F8B70A415594F8B70A401C84F83E
:10695000B70A80A0FEF76EFF307A80072CD594F836
:10696000B71A0120485594F8B70A401C84F8B70AB2
:1069700080A01FE086A0FEF75DFF4FF0FF30BDE86E
:10698000F08150B194F8B70A415594F8B70A401C09
:1069900084F8B70A6FA0FEF74DFF307A80070BD559
:1069A00094F8B71A01F8058094F8B70A401C84F8E7
:1069B000B70A83A0FEF73EFF3878317AC0F3C003F0
:1069C000C1F3C00293421BD062F3C30038700807C2
:1069D0000AD594F8B71A0320485594F8B70A401C12
:1069E00084F8B70A7DA009E094F8B71A0420485546
:1069F00094F8B70A401C84F8B70A80A0FEF71AFF83
:106A00003878317AC0F30013C1F3001293421BD0DF
:106A100062F304103870C8060AD594F8B71A052036
:106A2000485594F8B70A401C84F8B70A7BA009E0DF
:106A300094F8B71A0620485594F8B70A401C84F811
:106A4000B70A7EA0FEF7F6FE3978307AC1F340131C
:106A5000C0F3401293421BD062F345113970800697
:106A60000AD594F8B71A0720485594F8B70A401C7D
:106A700084F8B70A7AA009E094F8B71A08204855B4
:106A800094F8B70A401C84F8B70A7CA0FEF7D2FE3F
:106A90007878717AC0F3C003C1F3C00293421BD06F
:106AA00062F3C300787008070AD594F8B71A0B2070
:106AB000485594F8B70A401C84F8B70A77A009E053
:106AC00094F8B71A0C20485594F8B70A401C84F87B
:106AD000B70A79A0FEF7AEFE7878727AC0F3001399
:106AE000C2F300118B421BD061F304107870D00602
:106AF0000AD594F8B71A0920485594F8B70A401CEB
:106B000084F8B70A74A009E094F8B71A0A20485527
:106B100094F8B70A401C84F8B70A76A0FEF78AFEFC
:106B200094F8B71A0D20485594F8B70A401C84F819
:106B3000B70A707A00F0070184F8171B74A0FEF7FB
:106B400079FE84F80080002019E70000560000203C
:106B5000740100204F6E426F617264696E673A2063
:106B6000536F66744150206F7220576562206D6FBD
:106B700064650A004F6E426F617264696E673A2005
:106B80004169724C696E6B206D6F64650A0000008C
:106B900067697A50726F746F636F6C4D6F64756C58
:106BA00065537461747573204572726F72202C2066
:106BB000496C6C6567616C20506172616D0A000000
:106BC0004F6E426F617264696E673A2053746174EC
:106BD000696F6E206D6F64650A0000005769466931
:106BE000207374617475733A20696E2062696E64F3
:106BF000696E67206D6F64650A0000005769466919
:106C0000207374617475733A206F75742062696EB5
:106C100064696E67206D6F64650A00005769466994
:106C2000207374617475733A20636F6E6E6563745C
:106C3000656420726F757465720A00005769466951
:106C4000207374617475733A20646973636F6E6E38
:106C5000656374656420726F757465720A00000064
:106C600057694669207374617475733A20636F6E57
:106C70006E6563746564206D326D0A0057694669FC
:106C8000207374617475733A20646973636F6E6EF8
:106C90006563746564206D326D0A0000576946694A
:106CA000207374617475733A2061707020636F6E25
:106CB0006E6563740A000000576946692073746149
:106CC0007475733A206E6F2061707020636F6E6E02
:106CD0006563740A00000000576946692073746197
:106CE0007475733A20696E2074657374206D6F64D7
:106CF000650A000057694669207374617475733AB8
:106D0000206F75742074657374206D6F64650A005C
:106D100052535349206973202564200A0000000063
:106D200010B530B316498268A1F530648A61C26833
:106D3000CA61028A0A84807C81F82200B4F8180BA8
:106D4000FFF744F8A4F8180BD4F8200BFFF746F827
:106D5000C4F8200B94F8CD2A04F6CE200E2111544D
:106D600094F8CD0A401C84F8CD0A0420207000203D
:106D700010BD04A0FEF75EFD4FF0FF3010BD000017
:106D8000740C00204552523A204E54502069732012
:106D9000656D707479200A0010B50D4C94F81607D3
:106DA000002813D00BA0FEF745FDB4F89B1A04F29F
:106DB000177001F0B3F8B4F89B1A814202D00DA00D
:106DC000FEF738FDFFF71CFAC4F89D0A10BD00005D
:106DD000740100205761726E696E673A2074696DA4
:106DE000656F75742C20726573656E6420646174C0
:106DF00061200A004552523A20726573656E642024
:106E000064617461206572726F720A0010B50300CC
:106E10004FF0000003D011B10222491E05E000200E
:106E200010BD9C5C521C2044C0B28A42F9D310BDF4
:106E300070B50C46050016D04FF463710D48FCF791
:106E40009AF90C4822462946801CFCF77BF90A4D2A
:106E50000120A5F89B4A85F81607FFF7D1F9C5F878
:106E60009D0A002070BD05A0FEF7E4FC4FF0FF3046
:106E700070BD000089080020740100204552523A7C
:106E8000206461746120697320656D707479200AD3
:106E90000000000010B50A4960B109790079491C69
:106EA000814205D106484FF46371801EFCF763F9F7
:106EB000002010BD03A0FEF7BDFC4FF0FF3010BD59
:106EC0008B0800204552523A206461746120697336
:106ED00020656D707479200A0000000070B50C46C2
:106EE0004FF0FF3560B10A460146064800F022FF28
:106EF000A04204D004A000BFFEF79CFC284670BD51
:106F000008A0F9E7540D00204552523A2046616925
:106F10006C656420746F2072625772697465200A10
:106F2000000000004552523A2067697A5075744457
:106F30006174612062756620697320656D70747973
:106F4000200A00007FB516460C0005462ED0684684
:106F5000FFF7A6FB05208DF804001A48D0F80D377E
:106F60008DF805305B1CC0F80D378DF808500A20ED
:106F7000FEF72CFFADF80200324621460DF1090064
:106F8000FCF7E0F80E216846FFF740FF8DF80D0092
:106F90000E21684600F0C2FF04000DD501460AA08C
:106FA000FEF748FC6FF0010004B070BD0DA0FEF7C5
:106FB00041FC4FF0FF30F7E70E216846FFF738FF3E
:106FC0002046F1E7740100204552523A2075617263
:106FD00074207772697465206572726F72202564FF
:106FE000200A000067697A5265706F727444617498
:106FF00061204572726F72202C20496C6C6567614C
:107000006C20506172616D0A0000000070B50E4680
:10701000049D04464BB111463046FEF747FF06F08B
:10702000070128B1012808D016E04FF0FF3070BDED
:10703000185D8D40284318550EE0EAB2C1F10806EC
:10704000F240FF20F04028401D1988406E7816431A
:107050006E701A5D02431A55002070BD2DE9F04391
:107060008DB01546149F8946064600244FF0FF3820
:10707000DBB1D7B13A4619466846FCF763F8012FF1
:1070800005D939466846FEF720FF401C0DD0294639
:107090004846FEF70BFF020068464FF0FF0309F079
:1070A000070106D0012A0BD017E040460DB0BDE81D
:1070B000F083845DC5F10800CC40C3401C400CE067
:1070C0008219805D5478C1F10802AD1AC5F1080536
:1070D000EB401C40C840944004432046E6E70000D3
:1070E00002484168491C4160704700004800002088
:1070F00002FB00107047511AB1FBF0F0704700001E
:107100002DE9FF410C4606004FF0000502D00CB1FE
:10711000334F5FE04FF0FF3004B0BDE8F0817019ED
:107120004078152854D2DFE800F05353535353539B
:1071300053535353535353353C49380B1E242A00A1
:107140002178397027A0FEF775FB3878012806D022
:10715000002211464FEA020000F0D8FC38E0FE227F
:1071600011461046F8E7D4F80110C7F8011024A022
:107170000AE0D4F80510C7F8051026A004E0D4F8FA
:107180000910C7F8091028A0FEF754FB627A61794C
:107190006078E1E7217829A018E02BA0FEF74AFBF0
:1071A00016E02079A2796179A3688DE80F00E37871
:1071B000A278218829A0FEF73DFB09E032A0FEF766
:1071C00039FB36A0FEF736FB217838A0FEF732FBFC
:1071D0006D1CEDB23078A842A1D800209CE70000D9
:1071E000660100204576743A204556454E545F4C62
:1071F00045445F4F6E4F6666202564200A000000FC
:107200004576743A4556454E545F4C45445F52208E
:1072100025640A004576743A4556454E545F4C4500
:10722000445F472025640A004576743A4556454E2A
:10723000545F4C45445F422025640A005253534931
:107240002025640A000000005452414E5350415220
:10725000454E545F44415441200A00005749464975
:107260005F4E5450203A205B25642D25642D256403
:1072700020253032643A253032643A253032645D5C
:107280005B25645D200A00004D4F44554C45204964
:107290004E464F202E2E2E0A000000005749462051
:1072A0004D4F44554C45202E2E2E0A006D6F6475AF
:1072B0006C6554797065203A205B25645D200A0076
:1072C0002DE9F0474FF00005ADF5647D5FEA000A57
:1072D0002E46ADF88853A8462F46E3950ED0FEF70C
:1072E00095FFAC4CE2AA611C04F53E60FFF728F95B
:1072F00004F6243958B1801C74D009E1A6A0FEF729
:1073000099FA4FF0FF300DF5647DBDE8F087ACA031
:10731000FEF790FAFEF774FF0146BDF88823ADA092
:10732000FEF788FA06E060194178AFA0FEF782FA0E
:107330006D1CADB2BDF888038542F4D3ACA0FEF756
:1073400079FA6079651C14286CD00CDC122824D2E0
:10735000DFE800F02329232D2323934923239323BC
:10736000934D235423DEDFF82C821D2808F10908F1
:1073700008F65F3779D008DC16287ED0182856D05A
:1073800019287ED01C2808D177E01F286FD022282A
:1073900055D0282871D02A286AD002212846FEF725
:1073A000C3FF94A066E02846FFF70EF8B0E0EA7944
:1073B000A97996A0FEF73EFAE3A80090BDF88803ED
:1073C000E119C21B01AB40460931093AFFF720FA27
:1073D000002892D1EB7901A92846E39AFFF786F9B4
:1073E0008EA047E08AE02846FEF752FF90E028464C
:1073F000FEF74EFF2846FFF787FA89E02846FEF79A
:1074000047FF89A0FEF716FAFEF7FAFE05464FF48D
:10741000167700BFFEF7F4FE401BB842FAD900F021
:107420000FFC75E02846FFF735FD84A022E02846D2
:10743000FFF730FD2846FFF773FC88A01AE02846C6
:10744000FFF728FD412205F108014846FBF77AFEC7
:1074500094F8E32A87480F21115494F8E30A401C5A
:1074600084F8E30A0520207003E024E009E039E015
:107470003FE081A0FEF7DEF94AE02846FFF70AFD6B
:1074800046E084A0FEF7D6F92846FEF701FFBDF8D6
:10749000881340460939FDF781FD28B182A0FEF727
:1074A000C9F9FDF73DFD33E00121397085A000BF2A
:1074B000FEF7C0F92CE0BDF88813002240460939D8
:1074C000FDF762FE80462846FEF7E2FEB8F1000FA7
:1074D0001ED031463E708448FEF7ACF9FDF720FD22
:1074E00082A0C7E72846FEF7D3FE31463E7083A050
:1074F000DEE72846FFF7CEFC8AA0BBE7601C01212F
:10750000FEF712FF8EA0FEF795F96FF00100FAE684
:10751000584D2078433D062820D2DFE800F01F03B5
:107520000D18242F534926700D2219312846FFF7D4
:10753000E7FD1621284607E04E4901223331267027
:10754000A1F16000044615E0FBF715FE06E0267089
:10755000D4F8092780492846FFF7D2FD5046FEF7A8
:10756000EFFD0020CFE6434926703431A1F14B00F6
:107570000C220446FFF7C4FD162108E03D482670A2
:10758000401E412249460446FFF7BAFD41212046EC
:10759000DAE700007401002047697A77697473485C
:1075A000616E646C65204572726F72202C20496C8C
:1075B0006C6567616C20506172616D0A00000000AB
:1075C000476574204F6E65205061636B6574210AB6
:1075D0000000000057694669324D43555B2534640D
:1075E0003A2534645D3A20002530327820000000CE
:1075F0000A0000004552523A20636D6420636F64B4
:1076000065206572726F72210A000000666C616706
:10761000202578202578200A0000000041636B4473
:10762000617461203A200A007265706F72743A4D7D
:107630004355207265626F6F74210A0041636B20AD
:1076400050524F44554354494F4E5F4D4F4445208F
:1076500073756363657373200A00000041636B20D8
:107660004745545F555454207375636365737320A5
:107670000A000000580C002041636B204745545F0E
:107680004D6F64756C652073756363657373200A51
:1076900000000000434D445F41534B5F4249474463
:1076A000415441200A000000557064617465204116
:1076B000736B2048616E646C65204661696C65641B
:1076C000200A000053797374656D20496E204F5471
:1076D00041204D6F64652042757379466C61672067
:1076E0003D202564200A0000D88000085379737477
:1076F000656D20476F204F6E200A00005379737428
:10770000656D204F5441204D6F6465204F76657242
:107710002042757379466C6167203D202564200AFC
:107720000000000057696669204D6F64756C652024
:1077300057696C6C2052657374617274200A000082
:107740004552523A20636865636B2073756D2065FE
:1077500072726F72210A0000F90400200B4810B504
:107760004FF46171016000F11001C16000F09AFAFC
:1077700048B107A0FEF75EF8BDE8104040F665315D
:107780000848FBF7F8BC08A0F4E70000540D0020FF
:107790007262437265617465204661696C64200A97
:1077A000000000007401002072624372656174651C
:1077B0002053756363657373200A0000F0B50646B5
:1077C0000025344C092787B0052E5CD2DFE806F08F
:1077D000030D0D3556006846FEF762FF0B2030E0C2
:1077E00001462DA0FEF726F845E003A8FEF758FF56
:1077F0008DF81070D4F80D078DF81100401CC4F8F6
:107800000D078DF814600620FEF7E0FAADF80E00C3
:107810000A2103A8FFF7FAFA8DF815000A2103A838
:1078200000F07CFB050003D501461BA0FEF702F823
:107830000A2103A8FFF7FCFA28E06846FEF730FFAC
:1078400013208DF80400D4F80D078DF80500401CB6
:10785000C4F80D070520FEF7B9FAADF802000921BA
:107860006846FFF7D3FA8DF808000921684600F052
:1078700055FB0500B4D409216846DBE76846FEF7EE
:107880000FFF1520DDE70BA0FDF7D4FF07B028465A
:10789000F0BD0000740100204552523A207561721B
:1078A00074207772697465206572726F7220256426
:1078B000200A00004552523A204366674D6F6465C6
:1078C000206572726F72210A0000000010B504A0DA
:1078D000FDF7B0FFBDE810400020FFF76FBF0000CC
:1078E0004B455931205052455353204C4F4E472061
:1078F0002C576966692052657365740A00000000A0
:1079000010B504A0FDF796FFBDE810400320FFF777
:1079100055BF00004B455931205052455353202C40
:1079200050726F64756374696F6E204D6F64650A81
:107930000000000010B506A0FDF77CFF0021FE222C
:10794000084600F0E3F8BDE810400220FFF736BF1C
:107950004B455932205052455353204C4F4E4720EF
:107960002C4169724C696E6B206D6F64650A000072
:1079700010B506A0FDF75EFF00221146FE2000F0C4
:10798000C5F8BDE810400120FFF718BF4B4559323C
:10799000205052455353202C536F66742041502081
:1079A0006D6F64650A0000002DE9F041074600266E
:1079B00000F008FA050034D0A8044FF0010413D4F5
:1079C00015E000BFD7F80120C6EBC60000EB400170
:1079D000535C04FA03F0284204D00D3150180068BB
:1079E00000B18047761CF6B23878B042EAD8280455
:1079F00017D5002612E000BFD7F80120C6EBC6005D
:107A000000EB4001535C04FA03F0284204D011312A
:107A10005018006800B18047761CF6B23878B04242
:107A2000EAD8BDE8F081000000B589B015491648D4
:107A3000CDE900014FF48063144A002102A800F050
:107A400031F8152202A91248FBF77CFB11491248B4
:107A5000CDE900014FF48073104A002102A800F024
:107A600021F80B48152202A91530FBF76BFB0C49D6
:107A70000748C1F8010009B008465DF804EB00F0C2
:107A800031B80000CD78000801790008000C0140F1
:107A90003C01002035790008717900080008014098
:107AA0000000002030B587B0DDE90A45CDF80110AF
:107AB0000B49CDF80520CDF80930CA78521CCA70A0
:107AC0008DF80020CDF81150CDF80D400A78521CE9
:107AD0000A7015226946FBF735FB07B030BD000080
:107AE0005C000020002806D00349097801700C29A9
:107AF00001D90C21017070475C00002008B50021FD
:107B00000091814201D2491CFAE708BD70B51446C4
:107B10000D460646012211460848FCF7FEF900F022
:107B2000D7F9224629463046FEF734F9224629463F
:107B30003046BDE87040FEF72DB900000008014056
:107B4000FCF7FEF9FDF726FCFDF7C0F8FDF7F4F8A9
:107B500026482549002401604FF4E131C0E90114B1
:107B60000C25C460C0E904458461C461FCF77AFF58
:107B700000B1FEE71D481E49403001604FF4165128
:107B8000C0E90114C460C0E904458461C461FCF724
:107B900069FF00B1FEE7002201211C20FCF744FA36
:107BA0001C20FCF735FA002211462620FCF73CFA8F
:107BB0002620FCF72DFA00F0A1F900F0A5F900F05D
:107BC0000BFAFFF7CBFDFFF72FFF0AA0FDF732FE00
:107BD0000DA110A0FDF72EFEFDF7ECF800F0FAF96C
:107BE0001648FFF76DFBF9E700380140BC000020A4
:107BF000004400404D435520496E6974205375631D
:107C000063657373200A0000303330333030303610
:107C1000000000004D43552048414C2053756363DC
:107C2000657373202C20536F667456657273696F89
:107C30006E203D2025730D0A000000006601002023
:107C4000012080F31388FCF721BA00B5010006D0AB
:107C50004A688868824205D14FF0000000BD4FF0AD
:107C6000FF3000BD02D2A0EB020000BD084600F0CC
:107C700013F84A688968511A401A00BD00B501001E
:107C800007D000F009F803460846FFF7DEFF181A90
:107C900000BD4FF0FF3000BD08B1006870474FF0E5
:107CA000FF30704720B1C16841608160002070479B
:107CB0004FF0FF3070472DE9F041040015460F46A4
:107CC0004FF0FF3020D0002F1ED06068A16888429E
:107CD000204609D2FFF7B9FFA84203D82046FFF794
:107CE000B4FF0546616807E0FFF7D6FF6168E26808
:107CF0008A1A801AA84209D92A463846FBF722FA7E
:107D00006068284460602846BDE8F0812046FFF79F
:107D1000C3FF6168E2688A1A861A32463846FBF762
:107D200011FAE0686060AA1BB9192046FFF7C3FF8B
:107D30003044E9E72DE9F04115460F46040008D02C
:107D40003FB1FFF79BFFA84206D86FF00100BDE8E6
:107D5000F0814FF0FF30FAE76168A068814229D8CE
:107D60002046FFF799FF0146A068E268821A8E1A42
:107D7000B54212D82A463946FBF7E4F9A0682844F0
:107D8000A0602046FFF788FF0146E068A268014432
:107D9000914200D1A0602846D9E732463946FBF728
:107DA000D1F9E068A060AA1BB9192046FFF7C2FF0D
:107DB0003044CCE72A463946FBF7C4F9A06828448A
:107DC000E8E7000070B5204C012600252179491C08
:107DD000C9B221711E2902D32571667002E0617853
:107DE00001292ED16570FEF735F8A17831B101294E
:107DF00008D002290ED0032923D11FE008B3208127
:107E0000A6701EE02189884202D10220A07018E0ED
:107E1000A57016E02189884204D0A570E58041F460
:107E2000005070BDE188491C89B2E180642908D303
:107E3000E5800321A17040F4004070BD2189884293
:107E4000E6D1002070BD00005C0000200A4800B5AB
:107E5000816985B041F0040181618069694600F063
:107E60000400049003200390012001900090034837
:107E7000FBF770FF05B000BD001002400008014094
:107E8000114800B5816985B041F0080181618069C0
:107E9000694600F008000490012001904FF4407002
:107EA0000090032003900948FBF754FF00F010F8FE
:107EB000002211461046FDF76DFF002211461046C4
:107EC000FDF768FF05B000BD00100240000C014046
:107ED00010B500224FF400710548FCF71EF800248D
:107EE000FDF724FF641CE4B2202CF9D310BD000080
:107EF000000C0140C043C0F3811070470148FCF7FB
:107F0000DBBB00007C000020012202490248FCF794
:107F10001DBE000048000020FC000020F8B5050050
:107F200021A00E4600684FF00004009001D01F4FC2
:107F30001BE04FF0FF30F8BD291901221B48FCF768
:107F4000A4FE00BF97F839002028FBD1022C0BD3E8
:107F5000285DFF2808D1012269461448FCF795FEE8
:107F600097F839002028FBD1641CB442E4D31048B0
:107F7000324641680FA0FDF75DFC00240DE0295D4D
:107F800011A0FDF757FC022C06D3285DFF2803D172
:107F900055210DA0FDF74EFC641CB442EFD30CA09C
:107FA000FDF748FC3046F8BD55000000FC000020FD
:107FB000480000204D435532576946695B253464BB
:107FC0003A2534645D3A20002530327820000000E4
:107FD0000A0000007047000010B50D210448FBF7AF
:107FE000CAF8FFF733FFBDE81040FFF749BF0000B4
:107FF0006601002070B5C0B015460C460646EE225C
:108000004FF480716846FBF7AFF822463146684668
:10801000FBF798F8E00701D0641CA4B261082A4677
:10802000684600F003F840B070BD00002DE9F04153
:1080300007460F48002415460E46824204D30E49D7
:108040000C480860BDE8F081FBF772FE0AE000BF53
:1080500037F8142005EB440100230120FBF728FE2C
:10806000641CA4B2B442F3D3BDE8F041FBF716BEE2
:1080700000000108009800086800002000000000CF
:1080800000000000010203040607080900000000C8
:10809000010203042A2A2A2A2A2A70696563656E66
:1080A000756D203D202564202C2070696563656313
:1080B0006F756E74203D2025642C207069656365A2
:1080C00053697A65203D2025642A2A2A2A2A2A2AE9
:1080D0002A200D0A00000000434D445F42494744F6
:1080E0004154415F53454E44202C205069656365DF
:1080F0002048616E646C65204661696C64202E20A6
:1081000053797374656D204F5441204D6F64652021
:108110004F7665722042757379466C6167203D2009
:108120002564200A000000004881000800000020AB
:108130007C00000054580008C48100087C00002026
:108140008C3000006458000800000000008000002F
:10815000000000000000000000000000000000001F
:10816000000000000000000000000000000000000F
:1081700000000000000000000000000000000000FF
:1081800000000000000000000000000000000000EF
:1081900000000000000000000000000000000000DF
:1081A00000000000000000FF0000000000000000D0
:1081B00000980008000000000000000000A24A042F
:0481C00000000000BB
:04000005080030EDD2
:00000001FF
