:020000040800F2
:10500000000B0020015100084564000841640008BD
:1050100043640008B9510008396800080000000026
:1050200000000000000000000000000049640008CB
:105030001B52000800000000476400086564000877
:105040001B5100081B5100081B5100081B51000890
:105050001B5100081B5100081B5100081B51000880
:105060001B5100081B5100081B5100081B51000870
:105070001B5100081B5100081B5100081B51000860
:10508000E55100081B5100081B5100081B51000886
:105090001B5100081B5100081B5100081B51000840
:1050A0001B5100081B5100081B5100081B51000830
:1050B0001B5100081B5100081B5100081B51000820
:1050C0001B5100081B5100081B5100081B51000810
:1050D0001B5100081B510008E56700081B51000820
:1050E0001B5100081B5100081B510008DFF80CD0B1
:1050F00000F050F800480047796A0008000B0020D3
:105100000648804706480047FEE7FEE7FEE7FEE761
:10511000FEE7FEE7FEE7FEE7FEE7FEE7B96400080C
:10512000ED500008202A04DB203A21FA02F0002189
:10513000704721FA02F3D040C2F1200291400843A7
:1051400019467047D2B201E000F8012B491EFBD28C
:1051500070470022F6E710B513460A460446194682
:10516000FFF7F0FF204610BD30B50B46014600208A
:105170002022012409E021FA02F59D4205D303FA19
:1051800002F5491B04FA02F52844151EA2F101029A
:10519000F1DC30BD064C074D06E0E06840F001034D
:1051A00094E8070098471034AC42F6D3FFF7A2FF0B
:1051B000506E0008706E0008FEE710B504460078D7
:1051C000002200280BD1852909DB8021E01C01F099
:1051D00029FCB4F8831049BA814201D0002010BDE7
:1051E000012010BD014800F015B900009C0400200A
:1051F00030B590F840500124AC40C56B6C60046839
:1052000063604368102B036803D099600068C26034
:1052100030BD9A600068C16030BD704770470000C3
:1052200006490020C8610648016941F00401016196
:10523000016941F04001016170470000E004002075
:1052400000200240064A0021D16106490A6942F065
:1052500002020A614861086940F040000861704735
:10526000E004002000200240044B0022DA61044ADE
:10527000136943F00103136101807047E0040020CB
:105280000020024014480022C168CB06134904D50F
:10529000CA6942F00202CA611022C3685B0705D5E1
:1052A000CB6943F00103CB6142F00402C369DB0721
:1052B00007D0CB6943F00403CB61C16921F0010140
:1052C000C161A2F58071013901D0C2607047C16926
:1052D00021F00101C161704700200240E00400207C
:1052E00070B5054600F05AFB0646114C09E0681CF3
:1052F00007D025B100F052FB801BA84201D9032042
:1053000070BDE068C007F2D1E068800601D52020BA
:10531000E060E068C00605D4E069C00702D1E0683B
:10532000400703D5FFF7AEFF012070BD002070BD20
:105330000020024010B590F821100022022905D06B
:105340000421816380F82020012010BD01680B68D2
:1053500023F00E030B6001680B6823F001030B6060
:1053600090F84030C46B012101FA03F3636080F8C8
:10537000211080F82020104610BD000010B590F8D4
:1053800021100024022903D00421816301243DE07F
:1053900001680A6822F00E020A6001680A6822F0B9
:1053A00001020A601A4A0168914201D1012121E0FB
:1053B000174A1432914201D110211BE0144A2832BD
:1053C000914201D1891515E0114A3C32914201D137
:1053D00089140FE00E4A5032914202D14FF48031CD
:1053E00008E00B4A6432914202D14FF4801101E08F
:1053F0004FF08071064A083A5160012180F821106F
:10540000002180F82010416B01B18847204610BD73
:10541000080002402DE9F05FC16B0C6801680B6861
:10542000D0F840C0042202FA0CF2494DDFF824A162
:10543000494E4A4FDFF828B1DFF828E122422CD04C
:105440005A072AD50A68920603D40A6822F0040291
:105450000A600168A94201D1042219E0514501D135
:10546000402215E0B14202D14FF4806210E0B9420F
:1054700002D14FF480420BE0594502D14FF4802213
:1054800006E0714502D14FF4800201E04FF08062E6
:105490002F4908394A60C16A3BE04FF0020808FA18
:1054A0000CF818EA040F4FF000094FF0010235D054
:1054B0005FEA837832D50B689B0605D40B6823F02E
:1054C0000A030B6080F821200168A94201D1022261
:1054D00019E0514501D1202215E0B14202D14FF42B
:1054E000007210E0B94202D14FF400520BE059456E
:1054F00002D14FF4003206E0714502D14FF40012A0
:1055000001E04FF00072124908394A6080F820909B
:10551000816A00291AD0BDE8F05F0847082505FA1E
:105520000CF5254212D01B0710D50B6823F00E0393
:105530000B6090F84010C36B02FA01F1596082636E
:1055400080F8212080F82090016BE2E7BDE8F09F11
:10555000080002401C0002403000024044000240AB
:10556000580002406C00024030B528B308C8134907
:1055700014221944B1FBF2F18900C163104981631F
:10558000022141771A6843F6F0718A43D0E900148A
:105590002143D0E902452C43214304692143446956
:1055A0002143846921431143196000214163012291
:1055B00042770177084630BD012030BDF8FFFDBFBE
:1055C0000000024070B5044690F820000025012834
:1055D0000CD0012084F8200094F821600020012ED6
:1055E00006D084F820000225284670BD022070BD38
:1055F000022684F82160A0632068066826F0010670
:1056000006602046FFF7F4FDE06A00282068016884
:1056100002D041F00E0106E021F004010160206893
:10562000016841F00A0101602068016841F0010150
:105630000160D9E770B5044600F0B0F90546601C7A
:1056400002D004480078044400F0A8F9401BA042AE
:10565000FAD370BD040000202DE9F0470546264826
:105660000F460126017E01290FD0012181460176D6
:105670002868DFF888804CF25034022808D0A2460F
:105680002046FFF72DFEA8B131E00220BDE8F087EB
:105690002046FFF725FE08BB0120FFF7C1FD20468D
:1056A000FFF71EFED8F81010064621F00401C8F8D6
:1056B00010101CE04FF0FF303860AC6811E020465D
:1056C000FFF7C0FD5046FFF70BFED8F8101006009C
:1056D00021F00201C8F8101001D03C6007E004F589
:1056E0008064D5E9020100EB8120A042E7D80021C7
:1056F00089F818103046C9E7E00400200020024075
:105700000348016941F080010161002070470000F9
:10571000002002402DE9F05F07461C48884600241F
:10572000017E15461E46012909D0012181460176D8
:105730004CF2503A5046FFF7D3FD18B122E0022058
:10574000BDE8F09F012F02D0022F00D00427D346DE
:10575000DFF83CA0220128463146FFF7E3FC81B286
:1057600008EB4400FFF780FD5846FFF7B9FDDAF873
:10577000102022F00102CAF8102018B9641CE4B20B
:10578000BC42E7D3002289F81820D9E7E0040020C2
:1057900000200240064900200A69120607D5054A82
:1057A0004A60054A4A600969090600D50120704728
:1057B0000020024023016745AB89EFCD2DE9F84F6A
:1057C000DFF8B891002409F1040A0AF1040B23461A
:1057D0000F270BF1040EC9E00125A5402A40AA427B
:1057E0007DD1674ED1F804C0ACEB0608B44532D089
:1057F00014DCBCF1030F3AD009DCBCF1000F2AD055
:10580000BCF1010F1CD0BCF1020F31D11DE0BCF185
:10581000110F17D0BCF1120F2AD119E0B8F5881F6B
:1058200019D006DCB8F5803F15D0B8F5801F1FD120
:1058300011E0B8F5001F0ED0B8F5041F18D10AE02A
:10584000CB6815E0CB681B1D12E0CB6808330FE076
:10585000CB680C330CE08B682BB1012B4FF00803A5
:1058600003D0456104E0042302E0056100E0002369
:10587000FF2A01D8064601E000F104064FEA84053C
:1058800001D9A5F12005D6F8008007FA05FC28EA21
:105890000C0803FA05F548EA0508C6F800804D68CB
:1058A000ED0062D5374DAE6946F00106AE61AD69D7
:1058B00024F0030605F001050095334D06EB050CB9
:1058C000DCF80850A607360F07FA06F825EA08059F
:1058D000DFF8B880404503D14FF0000817E044E0FE
:1058E000DFF8AC80404502D14FF001080FE0DFF84F
:1058F000A480404502D14FF0020808E0DFF898800C
:10590000404502D14FF0030801E04FF0040808FAC7
:1059100006F848EA0508CCF808804D68D9F8006018
:10592000ED034D4601D5164300E096432E604D68C9
:10593000DAF80060AD03554601D5164300E0964302
:105940002E604D68DBF80060ED025D4601D5164320
:1059500000E096432E604D68DEF80060AD027546AB
:1059600001D5164300E096432E60641C0D682A465C
:10597000E5407FF431AFBDE8F88F0000000401403E
:10598000000011100010024000000140000801401A
:10599000000C0140001001400014014001488068E3
:1059A000704700000400002002488168027811441A
:1059B0008160704704000020074810B5016841F07D
:1059C00010010160032000F075F8002000F006F8D7
:1059D00000F024F8002010BD0020024070B50D4DED
:1059E00004464FF47A712878B1FBF0F00A4909684F
:1059F000B1FBF0F000F0FEFA48B9102C07D20022FB
:105A00002146501E00F036F800206C6070BD012069
:105A100070BD000004000020100000200C4808B5F4
:105A2000816941F001018161816901F00101009109
:105A3000C16941F08051C161C06900F0805000909F
:105A40000448416821F0E06141F00071416008BD07
:105A50000010024000000140002809DB00F01F0296
:105A6000012191404009800000F1E020C0F80011C0
:105A700070470000F0B40E4B1B680C46C3F30223C2
:105A8000C3F10705042D00D90425191D072901D2EA
:105A9000002300E0DB1E012606FA05F1491E214025
:105AA00099409E40761E16403143F0BC00F0F0BE97
:105AB0000CED00E0064900F0070208684FF6FF030E
:105AC000184040EA0220034A104308607047000073
:105AD0000CED00E00000FA05BFF34F8F05480168A8
:105AE000054A01F4E06111430160BFF34F8F00BF2D
:105AF000FDE700000CED00E00400FA052DE9F04799
:105B00000F46050061D0434E306800F00700B842F0
:105B100009D2306820F0070038433060306800F068
:105B20000700B84251D128683B4C810712D5400785
:105B300003D5606840F4E06060602878000703D512
:105B4000606840F4605060606068A96820F0F00010
:105B5000084360602878C00728D06868012810D002
:105B60002168022810D0890700292EDA616821F007
:105B7000030101436160FFF711FF804641F288395C
:105B80000DE021688903EFE78901EDE7FFF706FFE4
:105B9000A0EB0801494502D90320BDE8F087606801
:105BA000696800F00C00B0EB810FEFD1306800F0B5
:105BB0000700B8420BD9306820F007003843306046
:105BC000306800F00700B84201D00120E5E72878EE
:105BD000400705D56068E96820F4E060084360602C
:105BE0002878000706D56068296920F4605040EAEB
:105BF000C100606000F038F86168084AC1F3031121
:105C0000515CC8400649086006480068FFF7E6FE98
:105C10000020C2E70020024000100240386E000859
:105C20001000002008000020044805490068496869
:105C3000044AC1F30221515CC840704710000020A3
:105C400000100240486E0008044805490068496891
:105C5000044AC1F3C221515CC840704710000020C3
:105C600000100240486E000812A185B00FC98DE8EF
:105C70000F0014A0144A006804905168134801F002
:105C80000C03042B10D0082B0ED1C1F38343C9039E
:105C90001DF803000AD5516804AAC1F34041515CC4
:105CA0000A4A5043B0FBF1F005B070470849484339
:105CB000FAE7000002030405060708090A0B0C0DA9
:105CC0000E0F1010010200000010024000127A00B6
:105CD00000093D002DE9F84F040070D02078C04D38
:105CE000C00749D06868C0F38100012807D0686800
:105CF000C0F38100022809D16868C00306D528686E
:105D0000800339D560680028E7D035E06068B0F5D9
:105D1000803F0BD010B1B0F5A02F11D0286820F42F
:105D200080302860286820F4802002E0286840F451
:105D300080302860606890B1FFF730FE06460AE0C8
:105D4000286840F480202860F0E700BFFFF726FEB7
:105D5000801B642873D828688003F7D50CE0FFF710
:105D60001DFE064605E000BFFFF718FE801B6428F5
:105D7000F0D828688003F7D420789A4E80074FF037
:105D800001094FF0000839D5686810F00C0F07D0F2
:105D90006868C0F38100022809D16868C00306D48E
:105DA0002868800714D52069012808D110E02069EF
:105DB000B0B1C6F80090FFF7F1FD074605E00AE133
:105DC000FFF7ECFDC01B0228C4D828688007F7D570
:105DD0002868616920F0F80040EAC10028600DE001
:105DE000C6F80080FFF7DAFD074604E0FFF7D6FDAE
:105DF000C01B022823D828688007F7D42078000722
:105E00002CD57948A169D9B1C0F80090FFF7C6FD3B
:105E1000074604E0FFF7C2FDC01B02280FD8686ADE
:105E20008007F7D571484FF4FA510068B0FBF1F0E4
:105E3000009000BF0098411E0091FAD20EE080E071
:105E4000C0F80080FFF7AAFD074604E0FFF7A6FDB3
:105E5000C01B022875D8686A8007F7D420784007ED
:105E600060D5E8690027C00008D4E86940F0805098
:105E7000E861E869012700F0805000905C48016803
:105E8000C90513D40168834641F480710160FFF7AE
:105E900085FD824606E000BFFFF780FDA0EB0A000B
:105EA00064284ED8DBF80000C005F5D5E06801286D
:105EB0000AD008B1052813D0286A20F00100286212
:105EC000286A20F0040002E0286A40F001002862FD
:105ED000E06841F2883B98B1FFF760FD82460BE035
:105EE000286A40F004002862EEE700BFFFF756FD85
:105EF000A0EB0A0159455AD8286A8007F6D50CE06C
:105F0000FFF74CFD824605E0FFF748FDA0EB0A01D4
:105F100059454CD8286A8007F6D41FB1E86920F0AB
:105F20008050E861E06988B36968C1F381010229A2
:105F300044D00228C6F8608004D0FFF72FFD044645
:105F400038E034E0FFF72AFD074604E0FFF726FDBE
:105F5000C01B02282BD828688001F7D4206AB0F52E
:105F6000803F05D16868A16820F40030084368606C
:105F7000D4E908010843696821F474110843686092
:105F8000C6F86090FFF70AFD044606E025E000BF72
:105F9000FFF704FD001B022809D828688001F7D507
:105FA0001BE000BFFFF7FAFC001B022802D9032008
:105FB000BDE8F88F28688001F4D40EE00128F7D0FE
:105FC0006868226A00F48031914204D1616A00F469
:105FD0007010884201D00120EAE70020E8E70000C5
:105FE00000100240000042428004424210000020A3
:105FF0000070004010B5401EB0F1807F01D3012039
:1060000010BD4FF0E02460610F21601700F040FCEC
:106010000020A06107202061002010BD10B50446BB
:106020000068416994F83920C1F3C011212A0BD1CD
:1060300051B1416921F080014161206B08B1FFF746
:1060400079F9204600F0BAFA2068416994F83A20BC
:10605000C1F38011222A0BD151B1416921F04001D5
:106060004161606B08B1FFF765F9204600F098FACE
:10607000002010BD7047000070B50268044610682B
:10608000D168536910F00F0F50D003F0010501F4EF
:10609000907635435DD0C20705D0CA0503D5E26BC3
:1060A00042F00102E263420705D5DA0703D0E26B52
:1060B00042F00202E263820705D5DA0703D0E26B01
:1060C00042F00402E263020705D5DA0703D0E26B6F
:1060D00042F00802E263E26B002A33D0800604D566
:1060E000880602D5204600F072FA20684069E16B0C
:1060F000C0F38010090700D428B3204600F050FAFE
:106100002068416949061AD5416921F04001416181
:10611000606BA0B11B494163606BFFF72FF900284A
:1061200010D0606B416BBDE870400847830610D506
:106130008B060ED52046BDE8704000F048BA2046D8
:10614000FFF798FF70BD2046FFF794FF0020E06343
:1061500070BD030606D50B0604D52046BDE8704089
:1061600000F0DCBA4006F3D54806F1D5D1682046E8
:1061700021F04001D160202184F8391000F05FF94E
:1061800070BD00000165000870B5040004D094F8EB
:106190003900002510B106E0012070BD84F83850A8
:1061A000204600F023F8242084F839002068C168D4
:1061B00021F40051C160204600F054FA20680169C2
:1061C00021F4904101612068416921F02A01416177
:1061D0002068C16841F40051C160E563202084F863
:1061E000390084F83A00002070BD0000F0B585B099
:1061F000002400940194029403940646344F0368EB
:10620000344902220320344DBB4221D18B6943F42F
:1062100080438B618B6903F4804304938B6943F063
:1062200004038B618969039001F004010491110258
:10623000CDE9001269462846FFF7C0FA2815CDE9D6
:106240000004694628460294FFF7B8FA05B0F0BD8D
:10625000224FBB42FAD1CB6943F40033CB61CB6907
:1062600003F4003304938B6943F004038B61896961
:10627000039001F0040104910421CDE90012694664
:106280002846FFF79BFA0820CDE900046946284616
:106290000294FFF793FA134D1148C5E900048020DA
:1062A000C5E902402C616C61AC612846EC61FFF7E6
:1062B0005BF908B1FEF7B2FF7563002201212620C9
:1062C0006E62FFF7D7FB2620FFF7C6FBBEE7000094
:1062D0000038014000100240000801400044004026
:1062E0006C0002409C040020F8B5044690F83A0087
:1062F00020283CD1C1B3BAB394F83800012836D075
:10630000012084F83800A162A2850025E5632220DF
:1063100084F83A00636B17489862636B1648D8623A
:10632000636B16481863606B134645630846666BDB
:10633000216802463046091DFFF744F920680168CC
:106340004168009184F83850C16841F48071C1609F
:106350002068416941F0010141612068416941F0D3
:10636000400141610020F8BDFFE70120FBE702206A
:10637000F9E700005B6500089765000811650008F3
:10638000704770472DE9F843044690F839001F46DE
:1063900016460D46202850D1A5B19EB194F838007C
:1063A00001284AD0012084F838004FF00008C4F8D2
:1063B0003C80212084F83900FFF7F0FAA68481465A
:1063C000E68426E00120BDE8F883E08C401EE084EE
:1063D000A0684B46B0F5805F4FF000024FF080019F
:1063E0002046009703D000F0CAF9E8B90DE000F0AC
:1063F000C6F9C8B928882168C0F308004860206938
:1064000008B16D1C05E0AD1C03E0216815F8010B17
:106410004860E08C0028D8D14B460022402120461D
:10642000009700F0ACF908B10320CCE7202084F8F5
:10643000390084F838800020C5E70220C3E77047A0
:10644000FEE7FEE7704770477047000008B54FF061
:10645000AA30009001226946014800F0EFF908BD1A
:10646000FC8F0108FFF7A0BA30B58FB0282168462D
:10647000FEF76FFE14210AA8FEF76BFE0121080447
:10648000CDE900100024029402250491CDE90750C3
:106490004FF4E01009906846FFF71CFC0F20CDE98F
:1064A0000A056802CDE90C4002210AA80E94FFF704
:1064B00025FB0FB030BD00000D48016841F001011F
:1064C000016041680B4A1140416001680A4A11406D
:1064D0000160016821F480210160416821F4FE011E
:1064E00041604FF41F0181600449C0030860704798
:1064F000001002400000FFF8FFFFF6FE08ED00E08C
:1065000010B5406A0021C185C184FFF7B3FD10BDFD
:1065100070B5446A2068406994F83910C0F3C0101F
:106520000025212904D118B1E584204600F046F861
:106530002068406994F83A10C0F38010222904D1F1
:1065400018B1E585204600F02BF8E06B40F0100014
:10655000E0632046FFF78EFD70BD10B50146406A2E
:1065600009680968890613D40021C1850168CA68D1
:1065700022F48072CA6001684A6922F001024A610D
:1065800001684A6922F040024A61202180F83A10ED
:10659000FFF7F6FE10BD10B5406AFFF7F2FE10BD22
:1065A0000168CA6822F49072CA6001684A6922F0E0
:1065B00001024A61202180F83A1070470168CA68D8
:1065C00022F0C002CA60202180F83910704710B54F
:1065D00090F83A10222901D0022010BD8168B1F54F
:1065E000805F11D00169002901681FD0496801F05E
:1065F0007F03816A4A1C82620B70C18D491E0904A7
:10660000090CC18518D02BE00269816A002A026852
:10661000526805D0D2B20A80816A491C8162ECE7D7
:10662000C2F308020A80816A891CF7E74A68816A16
:106630004B1C83620A70E0E70168CA6822F02002FE
:10664000CA600168CA6822F48072CA6001684A6937
:1066500022F001024A61202180F83A10FFF790FEF3
:10666000002010BD2DE9F041044600680169E26890
:1066700021F44051114301612169A0680843616917
:1066800008432168CA6841F20C639A430243CA6016
:1066900020684169A26921F44071114341611E499A
:1066A000206864253226884202D1FFF7CDFA01E046
:1066B000FFF7BAFA00EBC00101EB001160686FF060
:1066C00018078000B1FBF0F2B2FBF5F2B1FBF0F37A
:1066D0007A4303EB8202B1FBF0F306EB0212B2FB4A
:1066E000F5F2B3FBF5F302F0F00202EB0312B1FB9B
:1066F000F0F3B1FBF0F0B0FBF5F0784303EB800072
:1067000006EB0010B0FBF5F0216800F00F0010441C
:106710008860BDE8F08100000038014090F8391031
:10672000212901D0022070478168B1F5805F016A9C
:106730000BD04A1C0262026809785160C18C491E64
:106740000904090CC1840ED017E009880268C1F35E
:106750000801516001690029016A02D0491C0162E7
:10676000ECE7891CFBE70168CA6822F08002CA6076
:106770000068C16841F04001C160002070472DE908
:10678000F041984617460E460446069D1DE0681CDB
:106790001BD02DB1FFF702F9A0EB0800A84214D9D5
:1067A0002068C16821F4D071C1602068416921F07E
:1067B00001014161202084F8390084F83A0000206A
:1067C00084F838000320BDE8F0812068006836EACC
:1067D000000004D00020B842D9D00020F3E7012007
:1067E000F9E7000038B5104C20680168C943C906B4
:1067F00014D40168406800902046FFF70FFC606BDE
:10680000006840680949C0F5806008800849012097
:106810008202087007492046FFF766FDBDE8384050
:106820000148FFF729BC00005C04002002000020A2
:10683000000000201C000020FEE700002DE9F041D0
:1068400015460E460746FEF7A5FF002409E000BFE7
:1068500056F8242007EB840100230220FEF75AFF9C
:10686000641CAC42F4DBBDE8F041FEF749BF000018
:106870000FB4054B10B503A9044A029800F028F89C
:1068800010BC5DF814FB0000616A000818000020CD
:106890000907090E002804DB00F1E02080F800144D
:1068A000704700F00F0000F1E02080F8141D7047E1
:1068B00002E008C8121F08C1002AFAD170477047C9
:1068C000002001E001C1121F002AFBD17047000027
:1068D0002DE9FF4F89B09B460446002506E0252898
:1068E0000BD05A460B999047641C6D1C20780028E9
:1068F000F5D10DB02846BDE8F08F0027B84601223B
:10690000474900E0074314F8013F203B02FA03F037
:106910000842F7D120782E2819D114F8010F47F03A
:1069200004072A280ED06FF02F022078A0F1300142
:1069300009290CD808EB880102EB410100EB0108A2
:10694000641CF2E70A98641C50F8048B0A902078C3
:106950000028CED0642808D0692806D075281ED01B
:106960005A460B9990476D1C58E00A994FF00A0956
:1069700001C90A91002802DA40422D2102E03905BE
:1069800004D52B218DF82010012103E0F90704D054
:106990002021F7E78A4608AE0DE00021FAE70A99C0
:1069A0004FF00A0901C90A91F7E74946FEF7DCFBF7
:1069B000303106F8011D0028F7D1ADEB060000F1DB
:1069C0002009780701D44FF00108C84502DDA8EB83
:1069D000090000E000208046002706E008A85A468B
:1069E000C05D0B9990476D1C7F1C5745F6DB04E09A
:1069F00030205A460B9990476D1CB8F10001A8F160
:106A00000108F5DC05E016F8010B5A460B99904792
:106A10006D1CB9F10001A9F10109F4DC641C65E702
:106A20000928010070B5034641F221044FF6FF75B5
:106A300011E000BF13F8010B82EA002200201604C7
:106A400003D584EA420292B201E005EA4202401C08
:106A50000828F4DB491E0029ECDC104670BD00005C
:106A600013B54FF6FF73012269460248FFF78AFC0F
:106A700000981CBD1C040020384908B53648086041
:106A8000FEF79AFFFFF7F0FC3548816941F02001DD
:106A90008161816901F020010091816941F0040167
:106AA0008161816901F004010091416941F00101B6
:106AB00041614069002200F0010000901146102061
:106AC000FEF7D8FF1020FEF7C7FF274825494FF4EF
:106AD000E13600240160C0E901640C27C460C0E90C
:106AE00004478461C461FFF74FFB1F4D1F484035C9
:106AF0002860C5E90164EC60C5E90447AC6128463B
:106B0000EC61FFF741FB4FF48062A5F588612846F0
:106B1000FFF7EAFB2868C16841F01001C16014A0CA
:106B2000FFF7A6FE13A0FFF7A3FE1CA0FFF7A0FE31
:106B300024A0FFF79DFE19A0FFF79AFE2BA0FFF7F8
:106B400097FE16A0FFF794FE0AA0FFF791FE00BF84
:106B500000F06EF8FCE700000050000808ED00E0CF
:106B600000100240003801401C0400200044004096
:106B70000D0A00002A2A2A2A2A2A2A2A2A2A2A2A06
:106B80002A2A2A2A2A2A2A2A2A2A2A2A2A2A2A2A65
:106B90002A2A2A2A2A2A2A0D0A0000002A2020202E
:106BA00020202020202020202020202020202020E5
:106BB00020202020202020202020202020202A0DDE
:106BC0000A0000002A202020204C6561665F467282
:106BD0007569742773204170706C69636174696FA3
:106BE0006E20202020202A0D0A0000002A202020CC
:106BF0002056657273696F6E203A20302E302E3128
:106C000020202020202020202020202020202A0D8D
:106C10000A00000001B54FF6FF73012269460348E0
:106C2000FFF7B0FB0A20FEF705FD08BD5C0400205D
:106C300070B5524C86B02078012806D14320FFF76A
:106C4000E9FF4FF47A70FEF7F5FC4D480178002912
:106C500067D0002606704B484B4D4C4A0178617056
:106C6000304602E0135C2B54401C8842FADB287843
:106C700001280CD0042854D12078022868D0042898
:106C80006DD043A006B0BDE87040FFF7F1BD3E48AF
:106C9000FEF793FA012801D045A0F3E720780128F8
:106CA0001DD005283FD002283BD16978A0788142C9
:106CB00037D1AA78C943C9B28A4232D1C10140A0B2
:106CC000FFF7D6FDA0784649202201EBC010E91C51
:106CD000FFF7B4FDA078401CA070062048E068785B
:106CE00000281ED1A878FF281BD13EA0FFF7C0FDC9
:106CF000022020700120A0700620FFF78BFF4320A8
:106D0000FFF788FF364D28248035FEF743FDCDE997
:106D10000254009604A968460496FEF79DFCFEF70F
:106D2000EFFC06B070BD68780028FAD1A878FF287B
:106D3000F7D132A0FFF79CFDFFF788FB0120207000
:106D40000620FFF767FF06B0BDE87040FEF7C4BE3F
:106D50002FA0FFF78DFD04202070152008E031A042
:106D6000FFF786FD052020700620FFF753FF432024
:106D700006B0BDE87040FFF74DBF000014000020D2
:106D80000000002002000020000500201C00002060
:106D90003E205265636569766520454F542C20423C
:106DA0007574206572726F722E2E2E0D0A0000000F
:106DB0003E204E6F7470617373206372630D0A001E
:106DC0003E20526563656976652064617461206266
:106DD00061673A256420627974650D0A000000003D
:106DE00080EF00083E205265636569766520737404
:106DF0006172742E2E2E0D0A000000003E20526596
:106E0000636569766520656E642E2E2E0D0A00007E
:106E10003E205265636569766520454F54312E2EBC
:106E20002E0D0A003E205265636569766520454F48
:106E300054322E2E2E0D0A0000000000000000002B
:106E40000102030406070809000000000102030410
:106E5000706E0008000000201C000000B0680008F0
:106E60008C6E00081C000020E40A0000C0680008C6
:106E70000000000001000000100000000000000001
:0C6E80000024F4000100000000000000ED
:04000005080050EDB2
:00000001FF
